S01C00004D6F746F72436F6E74726F6C6C65725F323031382E73726563A9
S113000049C0000065C0000063C0000061C000007A
S11300105FC000005DC000007EC3000059C0000046
S113002057C0000055C0000053C0000051C000007C
S1130030D0C200004DC000004BC0000049C0000009
S113004074C2000025C7000078C4000041C000004D
S11300503FC000006AC100004AC1000039C000006E
S113006037C0000035C0000033C0000031C00000BC
S11300702FC000002DC000002BC0000029C00000CC
S11300808DC100006DC1000023C0000021C000002C
S11300901FC0000011241FBECFEFD0E1DEBFCDBFD3
S11300A011E0A0E0B1E0E2E4F3E100E00BBF02C044
S11300B007900D92A630B107D9F723E0A6E0B1E08E
S11300C001C01D92A938B207E1F7FCD10C949F0935
S11300D097CF8F929F92AF92BF92CF92DF92EF927F
S11300E0FF92CF93DF9310D74B015C012AE037EDE9
S11300F043E25CE30E943C09209106013091070130
S1130100409108015091090100D76B017C01609373
S1130110060170930701809308019093090123EA73
S113012036E043ED5AE3C501B4010E943C094B019A
S11301305C012CE53FE842EC50E4C701B6014DD721
S11301409B01AC01C501B401E0D620E030E048E4F5
S113015052E4DBD66B017C016093000170930101D2
S1130160809302019093030120E030E04EEB52E4CF
S11301700E94380918166CF480E090E0AEEBB2E40B
S11301808093000190930101A0930201B0930301B5
S113019015C020E030E040EA50E4C701B60119D7A9
S11301A0882364F480E090E0A0EAB0E48093000146
S11301B090930101A0930201B0930301C0919600B2
S11301C0D091970020E030E048EC52E460910001C7
S11301D0709101018091020190910301FED66B019F
S11301E07C01BE0180E090E091D79B01AC01C70186
S11301F0B6010E943C0959D7E8E9F0E071836083B5
S11302008081918190939B0080939A00DF91CF919C
S1130210FF90EF90DF90CF90BF90AF909F908F9022
S113022008956D987598ED98EAE6F0E080818C6009
S11302308083E59AED9A08958F929F92AF92BF9230
S1130240EF92FF921F93CF93DF931F92CDB7DEB748
S11302507C01142F80E090E059D720E030E040E0AA
S11302605FE30E943C0923EC35EF48E450E40E942C
S11302703C0920E030E040E85EE3FED74B015C013E
S1130280612F70E080E090E043D79B01AC01C50191
S1130290B401A3D60FD769831981F701608170E097
S11302A080E090E035D726E636E646E65FE3E4D71D
S11302B04B015C01612F70E080E090E029D72DECC8
S11302C03CEC4CEC5DE3D8D79B01AC01C501B40117
S11302D01CD6F0D6F70160830F90DF91CF911F9168
S11302E0FF90EF90BF90AF909F908F9008950F93E1
S11302F00FB7EF93FF93E091DC02F091FE02E395D8
S1130300EF71EF1305C0F091C100FF7DF093C100C0
S1130310E093DC02F0E0ED5DFC4FE081E093C60089
S1130320FF91EF910FBF0F9118950F930FB79F9304
S11303309091C600EF93FF93E0911F03F091DD02CB
S1130340E395EF71FE1731F0E0931F03F0E0E554FD
S1130350FD4F9083FF91EF919F910FBF0F911895DF
S11303600F930FB7EF93FF93E0912003F0912203D3
S1130370E395EF71EF1305C0F091C900FF7DF09391
S1130380C900E0932003F0E0E252FD4FE081E093E6
S1130390CE00FF91EF910FBF0F9118950F930FB7F8
S11303A09F939091CE00EF93FF93E0912103F091FE
S11303B0DB02E395EF71FE1731F0E0932103F0E0E7
S11303C0E150FD4F9083FF91EF919F910FBF0F91EB
S11303D01895E1E8F0E08081836080838081886003
S11303E080831092850010928400EFE6F0E0808113
S11303F0826080838CE790E09093890080938800EA
S1130400089584B5836084BD84B5886084BD16BCBA
S1130410EEE6F0E08081826080838FE487BD0895FA
S11304200F931F93CF93DF938C01EB01CB01CBD3BD
S11304308823B9F088819981803121E0920721F0E5
S11304408033924041F00DC08B81F801848385E0B4
S11304508093040106C08E81F801808385E0809337
S11304600401DF91CF911F910F910895CF93DF93F2
S1130470FC012081222319F1FB01EC01AEE7B3E07A
S1130480818513968C931397808114968C9314977B
S11304908581968116969C938E93159780919A00E8
S11304A090919B0018969C938E93179782819381C9
S11304B01A969C938E931997CD01C8D31882DF9115
S11304C0CF910895F894812C912C54017501640105
S11304D00DEC1CEC2CE43DE34DEC5CEC6CEC7DE3AE
S11304E086E693E02FD130D460E070E080E090E0C5
S11304F015D36FDF86DF95DE84E098D48CD4EEE7E5
S1130500F3E080E594E09183808388E082837894AB
S113051080E887D46AE071E08AE191E0A7DF6BE5C7
S113052073E08AE091E07CDFF5CF1F920F920FB663
S11305300F9211240BB60F92CF92DF92EF92FF929B
S11305402F933F934F935F936F937F938F939F93D7
S1130550AF93BF93EF93FF9380910401811103C084
S113056010920A0103C081508093040181E08093BA
S11305701A01C0902901D0902A01E0902B01F0903B
S11305802C0160910A0170E080E090E0BFD5A701E2
S113059096019FDD609115017091160144E683E296
S11305A091E04ADEFF91EF91BF91AF919F918F91BE
S11305B07F916F915F914F913F912F91FF90EF90B9
S11305C0DF90CF900F900BBE0F900FBE0F901F9037
S11305D018951F920F920FB60F9211240BB60F921B
S11305E02F933F934F935F936F937F938F939F9337
S11305F0AF93BF93EF93FF93809119018130B1F4CE
S11306008093180120E040E150E067E171E088E167
S113061091E01AD48091170190E090932201809385
S11306202101809119018F5F809319018091190133
S11306308230B1F48093180120E040E150E067E19A
S113064071E088E191E000D48091170190E09093EB
S1130650200180931F01809119018F5F80931901FC
S1130660809119018330B1F48093180120E040E1B6
S113067050E067E171E088E191E0E6D380911701F1
S113068090E090931E0180931D01809119018F5F6A
S113069080931901809119018430A9F485E0809335
S11306A0180120E040E150E067E171E088E191E069
S11306B0CBD38091170190E090931C0180931B0190
S11306C081E080931901609121017091220189E2F6
S11306D091E064D060911F017091200185E291E066
S11306E05DD060911B0170911C0184E291E0A3D064
S11306F0FF91EF91BF91AF919F918F917F916F91F6
S11307005F914F913F912F910F900BBE0F900FBEB1
S11307100F901F9018951F920F920FB60F921124ED
S11307208F939F9380911501909116010196909358
S11307301601809315019F918F910F900FBE0F901A
S11307401F9018958F929F92AF92BF92CF92DF9293
S1130750EF92FF920F931F93CF93DF93CDB7DEB742
S1130760FC010487158726873787C48AD58AE68AD9
S1130770F78A808A918AA28AB38A408751876287DE
S11307807387DF91CF911F910F91FF90EF90DF90CE
S1130790CF90BF90AF909F908F9008950F931F9329
S11307A0CF93DF9300D000D0CDB7DEB78C0180E0CB
S11307B090E0ACD420E030E040EA50E45DD520E0A5
S11307C030E040E859E358D527ED33EA40E150E4FE
S11307D09BD323EC34E64AE25DE3FFD320E030E030
S11307E040E450E4FAD369837A838B839C836981E0
S11307F07A818B819C812EEA37E441EE5DE385D3D7
S11308002DEC3CEC4CE85FE337D569837A838B832A
S11308109C8389819A81AB81BC81F8018083918317
S1130820A283B3830F900F900F900F90DF91CF911D
S11308301F910F9108950F931F93CF93DF9300D0CF
S113084000D0CDB7DEB78C0180E090E05FD420E02B
S113085030E040EA50E410D520E030E040E859E3CD
S11308600BD569837A838B839C8369817A818B819D
S11308709C812DEC3CEC4CE650E4ABD318168CF088
S113088069817A818B819C8120E030E040EA51E4E7
S1130890F3D420E030E040EB51E436D30BD4F8013C
S11308A0608369817A818B819C8126E636E646E9FC
S11308B050E48FD31816E4F069817A818B819C818E
S11308C02DEC3CEC4CE650E4D3D418168CF469813E
S11308D07A818B819C8120E030E04EE552E4CCD4D7
S11308E020E030E84BE153E40FD3E4D3F801608314
S11308F069817A818B819C8126E636E646E950E45B
S1130900B7D418168CF469817A818B819C8120E09C
S113091030E048E453E4B0D420E030E042E554E46D
S1130920F3D2C8D3F80160830F900F900F900F900B
S1130930DF91CF911F910F9108951F920F920FB6DF
S11309400F9211240BB60F922F933F934F935F9303
S11309506F938F939F93AF93BF93EF93FF93CF9333
S1130960DF931F92CDB7DEB78091E00080FF47C0D0
S11309709091DE0090FF43C01092ED00EEEEF0E0A7
S11309808081898380818F7B8083809132019091E3
S11309903101981789F18F702BE0829FC0011124D7
S11309A0FC01ED51FE4F20812093F0002081209323
S11309B0F20021812093F3002381AAEFB0E02C936D
S11309C024812C9325812C9326812C9327812C938D
S11309D020852C9321852C9322852C93FC01EB51AB
S11309E0FE4F80818F7080648093EF00809132018C
S11309F08F5F809332017DC0109230017AC081FFF5
S1130A0078C08091DE0081FF74C080E18093ED00A6
S1130A1080912E01282F30E090912F01291B31095C
S1130A202F773327203131050CF058C0E82FEF70B1
S1130A309091EF002E2F30E04BE0E49FF001112461
S1130A40ED5CFE4F9F704281407F942B92834091D6
S1130A50F2009091F000407E9770942B90839091D7
S1130A60F3009183AAEFB0E09C9193839C919483CB
S1130A709C9195839C9196839C9197839C9190875C
S1130A809C9191879C9192878F5F80932E014081E6
S1130A904295469547705181652F660F660F660F24
S1130AA0862F842B952F929596959770892BB1F468
S1130AB08BE0829FF001839FF00D1124ED5CFE4FCB
S1130AC08381833059F498E088E10FB6F894A895AF
S1130AD0809360000FBE90936000FFCFEEEEF0E0D5
S1130AE080818983898180818F7D808380E8809360
S1130AF0EF000F90DF91CF91FF91EF91BF91AF91F4
S1130B009F918F916F915F914F913F912F910F9092
S1130B100BBE0F900FBE0F901F901895CF93DF93CD
S1130B20E8EDF0E021E020831092E2002CE0209335
S1130B30E30027E32093E4001092E7001092E6001C
S1130B401092E9001092E8001092EC001092E50077
S1130B50CDEED0E01882AEEEB0E01C9220E1288306
S1130B601C921092F400282F2295220F207E2093AD
S1130B70F600969587959695879596958795809393
S1130B80F7001092F000862F8295880F807E809364
S1130B90F200769567957695679576956795609357
S1130BA0F30080E88093EF0083E08093DC0080937F
S1130BB0DE0080EB8093DB0082E0808310922D01C5
S1130BC0DF91CF910895CF93DF93EC0140912F01F2
S1130BD020912E01241789F1A42FAF708BE0A89FD8
S1130BE0B0011124FB01ED5CFE4F20812295269576
S1130BF027703181532F550F550F550F252B3295E3
S1130C003695377028833983FB01EB5CFE4F2081D6
S1130C102F702A83222399F0DB01AA5CBE4FFE01C8
S1130C20339630E02D5F3F4FCE01820F931F2D91FD
S1130C302193E817F907D9F702C080E004C04F5F99
S1130C4040932F0181E0DF91CF910895CF93DF93FB
S1130C50FC01ABEDB0E08C918F778C9380913001E7
S1130C60811127C01092ED0080818295880F807ECB
S1130C708093F200808191819695879596958795CA
S1130C80969587958093F300DF0113969F01255F66
S1130C903F4FCAEFD0E09D919883A217B307D9F7CD
S1130CA081E080933001828180648093EF0081E051
S1130CB043C020913101822F90E030913201831B97
S1130CC091098F7799274097B1F1A22FAF708BE0EC
S1130CD0A89FD0011124ED01CD51DE4F8081982FC2
S1130CE09295990F907E88818F71892B888380815A
S1130CF0982F9695969596958981807E892B8983E0
S1130D0091819295990F907E8F71892B898382812D
S1130D10982F9F708A81807F892B8A83AA51BE4F26
S1130D20339688E001900D928A95E1F72F5F209326
S1130D30310181E001C080E0EBEDF0E0908190684A
S1130D409083DF91CF9108950F931F93CF93DF93F7
S1130D508EB1877C8EB98DB188638DB92C98249A15
S1130D60A1E9B0E08C9188618C93E0E9F0E08081A6
S1130D708260808380818E7F8083C0EBD0E0888115
S1130D808864888380818068808380818F7B80836E
S1130D908081806280838081806180838881806299
S1130DA0888388818F7E88838C9181608C938C91D9
S1130DB0897F8C93E6E9F0E089E991E0918380836F
S1130DC0C8E9D0E0198218820AE910E0D801119626
S1130DD01C921E9210929D0010929C001092B300DF
S1130DE06081718180E090E091D120E030E040E0CA
S1130DF05FE342D25AD17983688388819981F8016B
S1130E0091838083DF91CF911F910F91089595B1C4
S1130E10892B85B9089584B1806E84B980EEF7CFAB
S1130E20089595B18095982395B9089594B19760E4
S1130E3094B982FB992790F9282F227081708C65D0
S1130E40822B8CBD9DBD0895CF93DF93EC01289830
S1130E5041155105C1F0FB01DC01460F571F8FEF0F
S1130E60209711F09C9101C0982F9EBD0DB407FEF0
S1130E70FDCF6115710511F09EB5908331961196E1
S1130E80E417F50769F72111289ADF91CF910895A6
S1130E901F920F920FB60F9211240BB60F922F933D
S1130EA03F934F935F936F937F938F93AF93BF93CE
S1130EB0EF93FF93A3EBB2E0E3E9F2E023EB32E03C
S1130EC08D91882359F04081518162817381505EF4
S1130ED06F4F7F4F40835183628373833496E2174D
S1130EE0F30771F7FF91EF91BF91AF918F917F91CC
S1130EF06F915F914F913F912F910F900BBE0F9087
S1130F000FBE0F901F9018955058BB27AA270ED0DC
S1130F1075C166D130F06BD120F031F49F3F11F4EC
S1130F201EF45BC10EF4E095E7FB51C1E92F77D1C4
S1130F3080F3BA17620773078407950718F071F4F2
S1130F409EF58FC10EF4E0950B2EBA2FA02D0B0148
S1130F50B90190010C01CA01A0011124FF27591BFA
S1130F6099F0593F50F4503E68F11A16F040A22F00
S1130F70232F342F4427585FF3CF46953795279571
S1130F80A795F0405395C9F77EF41F16BA0B620B70
S1130F90730B840BBAF09150A1F0FF0FBB1F661FB7
S1130FA0771F881FC2F70EC0BA0F621F731F841FFA
S1130FB048F4879577956795B795F7959E3F08F020
S1130FC0B3CF9395880F08F09927EE0F97958795DF
S1130FD00895D9D008F481E008950CD00FC107D149
S1130FE040F0FED030F021F45F3F19F0F0C0511111
S1130FF039C1F3C014D198F39923C9F35523B1F33C
S1131000951B550BBB27AA2762177307840738F073
S11310109F5F5F4F220F331F441FAA1FA9F333D0D2
S11310200E2E3AF0E0E830D091505040E695001C86
S1131030CAF729D0FE2F27D0660F771F881FBB1F42
S1131040261737074807AB07B0E809F0BB0B802D1C
S1131050BF01FF2793585F4F2AF09E3F510568F068
S1131060B6C000C15F3FECF3983EDCF386957795FC
S11310706795B795F7959F5FC9F7880F911D96956A
S1131080879597F90895E1E0660F771F881FBB1FC6
S1131090621773078407BA0720F0621B730B840B73
S11310A0BA0BEE1F88F7E095089504D06894B11147
S11310B0D9C00895BCD088F09F5790F0B92F9927D4
S11310C0B751A0F0D1F0660F771F881F991F1AF04F
S11310D0BA95C9F712C0B13081F0C3D0B1E0089518
S11310E0C0C0672F782F8827B85F39F0B93FCCF399
S11310F0869577956795B395D9F73EF49095809545
S1131100709561957F4F8F4F9F4F0895E89409C064
S113111097FB3EF490958095709561957F4F8F4F26
S11311209F4F9923A9F0F92F96E9BB279395F6953C
S1131130879577956795B795F111F8CFFAF4BB0FBA
S113114011F460FF1BC06F5F7F4F8F4F9F4F16C01E
S1131150882311F096E911C0772321F09EE8872FA8
S1131160762F05C0662371F096E8862F70E060E064
S11311702AF09A95660F771F881FDAF7880F9695DD
S1131180879597F90895990F0008550FAA0BE0E881
S1131190FEEF16161706E807F907C0F01216130635
S11311A0E407F50798F0621B730B840B950B39F475
S11311B00A2661F0232B242B252B21F408950A26DB
S11311C009F4A140A6958FEF811D811D089597F91B
S11311D09F6780E870E060E008959FEF80EC0895D9
S11311E000240A9416161706180609060895002402
S11311F00A9412161306140605060895092E03947C
S1131200000C11F4882352F0BB0F40F4BF2B11F4EF
S113121060FF04C06F5F7F4F8F4F9F4F089557FD4E
S11312209058440F551F59F05F3F71F04795880F50
S113123097FB991F61F09F3F79F0879508951216E7
S113124013061406551FF2CF4695F1DF08C0161693
S113125017061806991FF1CF869571056105089444
S11312600895E894BB2766277727CB0197F908955B
S11312708ADF08F48FEF08950BD0C0CFB1DF28F0D8
S1131280B6DF18F0952309F0A2CFA7CF1124EACF37
S1131290C6DFA0F3959FD1F3950F50E0551F629FD1
S11312A0F001729FBB27F00DB11D639FAA27F00DBB
S11312B0B11DAA1F649F6627B00DA11D661F829FE2
S11312C02227B00DA11D621F739FB00DA11D621FC7
S11312D0839FA00D611D221F749F3327A00D611DE4
S11312E0231F849F600D211D822F762F6A2F1124C6
S11312F09F5750408AF0E1F088234AF0EE0FFF1F19
S1131300BB1F661F771F881F91505040A9F79E3F4F
S1131310510570F05CCFA6CF5F3FECF3983EDCF351
S1131320869577956795B795F795E7959F5FC1F78C
S1131330FE2B880F911D9695879597F90895F8943B
S1051340FFCFD9
S109134200004842050012
S9030000FC
