S01C00004D6F746F72436F6E74726F6C6C65725F323031382E73726563A9
S113000049C0000065C0000063C0000061C000007A
S11300105FC000005DC000005BC0000059C000006C
S113002057C0000055C0000053C0000051C000007C
S11300304EC200004DC000004BC0000049C000008B
S113004076C20000EAC500006FC3000041C0000092
S11300503FC000003DC000003BC0000039C00000AC
S113006037C00000AFC2000033C0000031C0000040
S11300702FC000002DC000002BC0000029C00000CC
S113008027C0000025C0000023C0000021C00000DC
S11300901FC0000011241FBECFEFD0E1DEBFCDBFD3
S11300A011E0A0E0B1E0E6E0FAE100E00BBF02C03D
S11300B007900D92A031B107D9F723E0A0E1B1E098
S11300C001C01D92AC30B207E1F785D10C94010D4B
S11300D097CF8F929F92AF92BF92CF92DF92EF927F
S11300E0FF92CF93DF93F3D54B015C012AE037ED08
S11300F043E25CE3A4D720911001309111014091B7
S1130100120150911301E4D56B017C01609310013D
S113011070931101809312019093130123EA36E046
S113012043ED5AE3C501B4018AD74B015C012CE5C8
S11301303FE842EC50E4C701B60132D69B01AC0162
S1130140C501B401C5D520E030E048E452E4C0D58F
S11301506B017C0160930601709307018093080191
S11301609093090120E030E04EEB52E464D7181676
S11301706CF480E090E0AEEBB2E4809306019093DF
S11301800701A0930801B093090115C020E030E0F5
S113019040EA50E4C701B601FFD5882364F480E047
S11301A090E0A0EAB0E48093060190930701A09345
S11301B00801B0930901C0919600D091970020E006
S11301C030E048EC52E4609106017091070180919F
S11301D0080190910901E4D56B017C01BE0180E026
S11301E090E077D69B01AC01C701B60128D740D671
S11301F0E8E9F0E0718360838081918190939B00B2
S113020080939A00DF91CF91FF90EF90DF90CF9091
S1130210BF90AF909F908F900895E1E8F0E08081C7
S1130220836080838081886080831092850010922F
S11302308400EFE6F0E08081826080838CE790E0C8
S11302409093890080938800089584B5836084BD69
S113025084B5886084BD16BCEEE6F0E080818260DF
S113026080838FE487BD0895882311F02B98089527
S11302702B9A08950F931F93CF93DF938C01EB0177
S1130280CB0198D3882349F188819981803222E077
S11302909207F1F020F48031914049F01EC0803380
S11302A022E0920761F08834944029F016C08B81D3
S11302B0F801858312C08B81F80180830EC08E8182
S11302C0F80181838C81827082838D81838705C04C
S11302D08B819C81F80194838383DF91CF911F915B
S11302E00F910895CF93DF93FC012081222319F10C
S11302F0FB01EC01A7EFB2E0828513968C93139770
S1130300818114968C9314978681978116969C9379
S11303108E93159780919A0090919B0018969C93C8
S11303208E931797838194811A969C938E93199731
S1130330CD0183D31882DF91CF9108950F931F933A
S1130340CF93DF9300D000D0CDB7DEB78C0180E02F
S113035090E0BFD523E333E343E550E470D620E0D7
S113036030E040E85AE36BD627ED33EA40E150E44D
S1130370AED423EC34E64AE25DE312D520E030E06B
S113038040E450E40DD569837A838B839C8369812F
S11303907A818B819C812EEA37E441EE5DE398D427
S11303A02DEC3CEC4CE85FE34AD669837A838B837B
S11303B09C8389819A81AB81BC81F801808391837C
S11303C0A283B3830F900F900F900F90DF91CF9182
S11303D01F910F910895CF93DF93CDB7DEB7289780
S11303E00FB6F894DEBF0FBECDBFF894812C912CCC
S11303F05401750164010DEC1CEC2CE43DE34DEC5F
S11304005CEC6CEC7DE38FED92E03ED14CD493D365
S113041060E070E080E090E078D2FFDE16DF60D12B
S1130420ECE7F0E08081807E80838081826080833D
S1130430E9D3E7EFF2E080E594E09183808388E0FC
S113044082837894239A80E00FDF80E8E1D3CE01A1
S113045001967C010AE011E064E171E089E291E037
S113046041DF64ED72E084E191E004DF60912701F3
S11304707091280180E090E02CD520E030E040E845
S11304805AE3DDD56093200170932101809322010A
S113049090932301609120017091210180912201A8
S11304A09091230120E030E048EC52E4C8D5E0D438
S11304B0DC01CB014AE0B70125D6FF92EF921F93EE
S11304C00F938DD60F900F900F900F90C5CF1F9262
S11304D00F920FB60F9211240BB60F922F933F93E6
S11304E04F935F936F937F938F939F93AF93BF9338
S11304F0EF93FF9381E0809329016091250170912E
S113050026018AE291E01ADFFF91EF91BF91AF914A
S11305109F918F917F916F915F914F913F912F9117
S11305200F900BBE0F900FBE0F901F9018951F9247
S11305300F920FB60F9211240BB60F92CF92DF9247
S1130540EF92FF922F933F934F935F936F937F9319
S11305508F939F93AF93BF93EF93FF936091200189
S1130560709121018091220190912301C0902A0170
S1130570D0902B01E0902C01F0902D0120E030E090
S113058040EA51E45CD520E030E040E251E49FD3FE
S1130590A70196019EDDFF91EF91BF91AF919F91CD
S11305A08F917F916F915F914F913F912F91FF9028
S11305B0EF90DF90CF900F900BBE0F900FBE0F9077
S11305C01F9018951F920F920FB60F9211240BB61D
S11305D00F922F933F934F935F936F937F938F93D8
S11305E09F93AF93BF93EF93FF9380912401833044
S11305F089F4209178008091790090E0982F8827E1
S1130600820F911D9093260180932501109224015D
S113061080E01EC0823039F483E07ED080912401D2
S11306208F5F8093240180912401813089F420918B
S113063078008091790090E0982F8827820F911D8F
S1130640909328018093270182E08093240109C0BC
S1130650811107C082E060D0809124018F5F809374
S11306602401FF91EF91BF91AF919F918F917F9161
S11306706F915F914F913F912F910F900BBE0F900F
S11306800FBE0F901F9018958F929F92AF92BF92BA
S1130690CF92DF92EF92FF920F931F93CF93DF934A
S11306A0CDB7DEB7FC010487158726873787C48A50
S11306B0D58AE68AF78A808A918AA28AB38A408791
S11306C0518762877387DF91CF911F910F91FF90BC
S11306D0EF90DF90CF90BF90AF909F908F90089550
S11306E0ECE7F0E0808180648083EAE7F0E08081D9
S11306F0846080838081806280838081886080833D
S1130700ABE7B0E08C91887F8C9380818068808394
S11307108081806480830895ECE7F0E09081987F85
S11307208770892B808308951F920F920FB60F92C2
S113073011240BB60F922F933F934F935F936F93B4
S11307408F939F93AF93BF93EF93FF93CF93DF93D5
S11307501F92CDB7DEB78091E00080FF47C0909133
S1130760DE0090FF43C01092ED00EEEEF0E08081D9
S1130770898380818F7B80838091330190913201C2
S1130780981789F18F702BE0829FC0011124FC011E
S1130790EC51FE4F20812093F00020812093F20041
S11307A021812093F3002381AAEFB0E02C932481CC
S11307B02C9325812C9326812C9327812C9320859F
S11307C02C9321852C9322852C93FC01EA51FE4F16
S11307D080818F7080648093EF00809133018F5FFC
S11307E0809333017DC0109231017AC081FF78C0BB
S11307F08091DE0081FF74C080E18093ED008091E0
S11308002F01282F30E090913001291B31092F77D7
S11308103327203131050CF058C0E82FEF70909148
S1130820EF002E2F30E04BE0E49FF0011124EC5C4C
S1130830FE4F9F704281407F942B92834091F2003F
S11308409091F000407E9770942B90839091F300E8
S11308509183AAEFB0E09C9193839C9194839C91A3
S113086095839C9196839C9197839C9190879C916E
S113087091879C9192878F5F80932F01408142954D
S1130880469547705181652F660F660F660F862F58
S1130890842B952F929596959770892BB1F48BE0C4
S11308A0829FF001839FF00D1124EC5CFE4F838145
S11308B0833059F498E088E10FB6F894A8958093B2
S11308C060000FBE90936000FFCFEEEEF0E08081F9
S11308D08983898180818F7D808380E88093EF0084
S11308E00F90DF91CF91FF91EF91BF91AF919F91C5
S11308F08F916F915F914F913F912F910F900BBE0C
S11309000F900FBE0F901F901895CF93DF93E8EDD3
S1130910F0E021E020831092E2002CE02093E30039
S113092027E32093E4001092E7001092E60010926F
S1130930E9001092E8001092EC001092E500CDEE70
S1130940D0E01882AEEEB0E01C9220E128831C9225
S11309501092F400282F2295220F207E2093F60077
S11309609695879596958795969587958093F700A4
S11309701092F000862F8295880F807E8093F2007B
S11309807695679576956795769567956093F30068
S113099080E88093EF0083E08093DC008093DE00A6
S11309A080EB8093DB0082E0808310922E01DF9144
S11309B0CF910895CF93DF93EC01409130012091C2
S11309C02F01241789F1A42FAF708BE0A89FB001E9
S11309D01124FB01EC5CFE4F2081229526952770A3
S11309E03181532F550F550F550F252B32953695C1
S11309F0377028833983FB01EA5CFE4F20812F7016
S1130A002A83222399F0DB01A95CBE4FFE013396B1
S1130A1030E02D5F3F4FCE01820F931F2D91219324
S1130A20E817F907D9F702C080E004C04F5F40938C
S1130A30300181E0DF91CF910895CF93DF93FC01E2
S1130A40ABEDB0E08C918F778C9380913101811163
S1130A5027C01092ED0080818295880F807E80935C
S1130A60F2008081918196958795969587959695C4
S1130A7087958093F300DF0113969F01255F3F4F15
S1130A80CAEFD0E09D919883A217B307D9F781E00C
S1130A9080933101828180648093EF0081E043C0C0
S1130AA020913201822F90E030913301831B910910
S1130AB08F7799274097B1F1A22FAF708BE0A89F51
S1130AC0D0011124ED01CC51DE4F8081982F9295F5
S1130AD0990F907E88818F71892B88838081982FCC
S1130AE09695969596958981807E892B89839181A7
S1130AF09295990F907E8F71892B89838281982F8B
S1130B009F708A81807F892B8A83A951BE4F339637
S1130B1088E001900D928A95E1F72F5F20933201CE
S1130B2081E001C080E0EBEDF0E09081906890837B
S1130B30DF91CF9108950F931F93CF93DF938EB1DD
S1130B40877C8EB98DB188638DB92C98249AA1E9DC
S1130B50B0E08C9188618C93E0E9F0E08081826060
S1130B60808380818E7F8083C0EBD0E0888188641D
S1130B70888380818068808380818F7B808380816B
S1130B8080628083808180618083888180628883A1
S1130B9088818F7E88838C9181608C938C91897FEE
S1130BA08C93E6E9F0E089E991E091838083C8E9D8
S1130BB0D0E0198218820AE910E0D80111961C923B
S1130BC01E9210929D0010929C001092B3006081BE
S1130BD0718180E090E07DD120E030E040E05FE38F
S1130BE02ED246D17983688388819981F8019183D3
S1130BF08083DF91CF911F910F91089595B1892B37
S1130C0085B9089584B1806E84B980EEF7CF0895D4
S1130C1095B18095982395B908951F920F920FB6B8
S1130C200F9211240BB60F922F933F934F935F9320
S1130C306F937F938F93AF93BF93EF93FF93A4EB43
S1130C40B2E0E4E9F2E024EB32E08D91882359F03C
S1130C504081518162817381505E6F4F7F4F408329
S1130C605183628373833496E217F30771F7FF911C
S1130C70EF91BF91AF918F917F916F915F914F9160
S1130C803F912F910F900BBE0F900FBE0F901F90AE
S1130C901895E0ECF0E0908195FFFDCF8093C600BD
S1130CA081E090E0089583E390E09093C500809301
S1130CB0C40086E08093C200E1ECF0E080818860AB
S1130CC0808360E070E089E496E03FC20895505864
S1130CD0BB27AA270ED075C166D130F06BD120F0A6
S1130CE031F49F3F11F41EF45BC10EF4E095E7FB71
S1130CF051C1E92F77D180F3BA17620773078407CC
S1130D00950718F071F49EF58FC10EF4E0950B2E43
S1130D10BA2FA02D0B01B90190010C01CA01A00149
S1130D201124FF27591B99F0593F50F4503E68F1A4
S1130D301A16F040A22F232F342F4427585FF3CFE5
S1130D40469537952795A795F0405395C9F77EF4B6
S1130D501F16BA0B620B730B840BBAF09150A1F0FF
S1130D60FF0FBB1F661F771F881FC2F70EC0BA0F85
S1130D70621F731F841F48F4879577956795B7950D
S1130D80F7959E3F08F0B3CF9395880F08F0992705
S1130D90EE0F979587950895D9D008F481E00895CA
S1130DA00CD00FC107D140F0FED030F021F45F3FEA
S1130DB019F0F0C0511139C1F3C014D198F399233B
S1130DC0C9F35523B1F3951B550BBB27AA2762170B
S1130DD07307840738F09F5F5F4F220F331F441F50
S1130DE0AA1FA9F333D00E2E3AF0E0E830D0915088
S1130DF05040E695001CCAF729D0FE2F27D0660F75
S1130E00771F881FBB1F261737074807AB07B0E8B3
S1130E1009F0BB0B802DBF01FF2793585F4F2AF0C9
S1130E209E3F510568F0B6C000C15F3FECF3983EA9
S1130E30DCF3869577956795B795F7959F5FC9F726
S1130E40880F911D9695879597F90895E1E0660FAF
S1130E50771F881FBB1F621773078407BA0720F028
S1130E60621B730B840BBA0BEE1F88F7E095089591
S1130E7004D06894B111D9C00895BCD088F09F57AC
S1130E8090F0B92F9927B751A0F0D1F0660F771FD2
S1130E90881F991F1AF0BA95C9F712C0B13081F0B2
S1130EA0C3D0B1E00895C0C0672F782F8827B85FFA
S1130EB039F0B93FCCF3869577956795B395D9F713
S1130EC03EF490958095709561957F4F8F4F9F4F1D
S1130ED00895E89409C097FB3EF490958095709529
S1130EE061957F4F8F4F9F4F9923A9F0F92F96E972
S1130EF0BB279395F695879577956795B795F111E7
S1130F00F8CFFAF4BB0F11F460FF1BC06F5F7F4F83
S1130F108F4F9F4F16C0882311F096E911C0772395
S1130F2021F09EE8872F762F05C0662371F096E89E
S1130F30862F70E060E02AF09A95660F771F881F6D
S1130F40DAF7880F9695879597F90895990F000811
S1130F50550FAA0BE0E8FEEF16161706E807F90787
S1130F60C0F012161306E407F50798F0621B730B22
S1130F70840B950B39F40A2661F0232B242B252BA3
S1130F8021F408950A2609F4A140A6958FEF811D46
S1130F90811D089597F99F6780E870E060E00895E7
S1130FA09FEF80EC089500240A941616170618067D
S1130FB00906089500240A94121613061406050659
S1130FC00895092E0394000C11F4882352F0BB0FEA
S1130FD040F4BF2B11F460FF04C06F5F7F4F8F4F4D
S1130FE09F4F089557FD9058440F551F59F05F3F88
S1130FF071F04795880F97FB991F61F09F3F79F037
S113100087950895121613061406551FF2CF4695B8
S1131010F1DF08C0161617061806991FF1CF86953A
S11310207105610508940895E894BB27662777271E
S1131030CB0197F908958ADF08F48FEF08950BD058
S1131040C0CFB1DF28F0B6DF18F0952309F0A2CFA6
S1131050A7CF1124EACFC6DFA0F3959FD1F3950F54
S113106050E0551F629FF001729FBB27F00DB11D28
S1131070639FAA27F00DB11DAA1F649F6627B00DB8
S1131080A11D661F829F2227B00DA11D621F739FA1
S1131090B00DA11D621F839FA00D611D221F749FAF
S11310A03327A00D611D231F849F600D211D822FF6
S11310B0762F6A2F11249F5750408AF0E1F088233D
S11310C04AF0EE0FFF1FBB1F661F771F881F91504A
S11310D05040A9F79E3F510570F05CCFA6CF5F3F0B
S11310E0ECF3983EDCF3869577956795B795F7957D
S11310F0E7959F5FC1F7FE2B880F911D9695879505
S113110097F90895BB274A3031F4992322F4BDE2BC
S1131110909581959F4F01C0BB27FB015527AA27B6
S1131120880F991FAA1FA41710F0A41B8395505170
S1131130B9F7A05DAA3308F0A95DA193009779F7E8
S1131140B111B1931192CB01B2C30F931F93CF93FB
S1131150DF93009731F46115710519F480E090E094
S113116039C08B01EC016EE070E081E090E047D281
S1131170FC01892B99F380E883830115110571F033
S11311801387028781E8838380910203909103038C
S1131190892B21F4F0930303E09302032097C9F011
S11311A0D187C08783818260838380910403909177
S11311B00503892B71F4F0930503E09304038091F4
S11311C0060390910703892B21F4F0930703E0931E
S11311D00603CF01DF91CF911F910F910895CF9313
S11311E0DF93CDB7DEB7AE014B5F5F4FFA0161917C
S11311F07191AF01809104039091050303D0DF91B5
S1131200CF9108952F923F924F925F926F927F9267
S11312108F929F92AF92BF92CF92DF92EF92FF9202
S11312200F931F93CF93DF93CDB7DEB72B970FB6F2
S1131230F894DEBF0FBECDBF6C017B018A01FC01B7
S113124017821682838181FFBFC1CE0101963C01C2
S1131250F6019381F70193FD859193FF81917F01BD
S1131260882309F4ADC1853239F493FD859193FF48
S113127081917F01853221F4B60190E028D3E8CF33
S1131280912C212C312CFFE1F315D8F08B3279F01D
S113129038F4803279F08332A1F4232D20611DC00B
S11312A08D3261F0803369F4232D216016C0832DC3
S11312B08260382EE32DE4603E2E2AC0F32DF860C0
S11312C01DC037FC2DC020ED280F2A3040F08E328F
S11312D0B9F436FC75C1232D2064322E19C036FEB4
S11312E006C08AE0989E200D1124922E11C0EAE0D7
S11312F02E9E200D1124222EF32DF0623F2E08C0C5
S11313008C3621F4832D8068382E02C0883641F44F
S1131310F70193FD859193FF81917F018111B3CFF3
S1131320982F9F7D9554933028F40C5F1F4F9FE3B3
S113133099830DC0833631F0833771F0833509F01A
S113134055C020C0F801808189830E5F1F4F882417
S11313508394912C530112C02801F2E04F0E511CCA
S1131360F801A080B18036FE03C0692D70E002C090
S11313706FEF7FEFC50190D24C018201F32DFF770F
S11313803F2E15C0280122E0420E511CF801A08016
S1131390B18036FE03C0692D70E002C06FEF7FEFAD
S11313A0C50168D24C01F32DF0683F2E820133FC55
S11313B019C0822D90E088169906A0F4B60180E247
S11313C090E085D22A94F5CFF50137FC859137FE5C
S11313D081915F01B60190E07AD221102A9421E034
S11313E0821A91088114910479F7E1C0843611F0CE
S11313F0893639F5F80137FE07C060817181828131
S113140093810C5F1F4F08C060817181072E000C0F
S1131410880B990B0E5F1F4FF32DFF763F2E97FF1E
S113142009C090958095709561957F4F8F4F9F4F20
S1131430F0683F2E2AE030E0A30185D2882E86187A
S113144044C0853731F4232D2F7EB22E2AE030E0BC
S113145025C0932D997FB92E8F36C1F018F48835A5
S113146079F0AEC0803719F0883721F0A9C0E92F90
S1131470E061BE2EB4FE0DC0FB2DF460BF2E09C08A
S113148034FE0AC0292F2660B22E06C028E030E0C0
S113149005C020E130E002C020E132E0F801B7FEEF
S11314A007C060817181828193810C5F1F4F06C0E8
S11314B06081718180E090E00E5F1F4FA30143D2F1
S11314C0882E8618FB2DFF773F2E36FE0DC0232D68
S11314D02E7FA22E891458F434FE0BC032FC09C0AE
S11314E0832D8E7EA82E05C0B82CA32C03C0B82C47
S11314F001C0B92CA4FE0FC0FE01E80DF11D8081CE
S1131500803321F49A2D997EA92E09C0A2FE06C02B
S1131510B394B39404C08A2D867809F0B394A3FCE1
S113152010C0A0FE06C0B21480F4280C922C9B18A4
S11315300DC0B21458F4B60180E290E0C8D1B3945F
S1131540F8CFB21418F42B1802C0982C212CA4FE46
S11315500FC0B60180E390E0BAD1A2FE16C0A1FC90
S113156003C088E790E002C088E590E0B6010CC0B3
S11315708A2D867851F0A1FE02C08BE201C080E280
S1131580A7FC8DE2B60190E0A2D1891430F4B60133
S113159080E390E09CD19A94F8CF8A94F301E80D0B
S11315A0F11D8081B60190E092D18110F6CF222006
S11315B009F44ECEB60180E290E089D12A94F7CFA7
S11315C0F6018681978102C08FEF9FEF2B960FB6AD
S11315D0F894DEBF0FBECDBFDF91CF911F910F9165
S11315E0FF90EF90DF90CF90BF90AF909F908F903F
S11315F07F906F905F904F903F902F9008950F933E
S11316001F93CF93DF93869F8001879F100D969F32
S1131610100D1124C8010DD0EC01009721F0A80190
S113162060E070E032D1CE01DF91CF911F910F9134
S113163008950F931F93CF93DF938230910510F495
S113164082E090E0E0910A03F0910B0320E030E0A7
S1131650A0E0B0E0309719F14081518102811381FB
S113166048175907C8F08417950769F4109731F0A3
S113167012960C93129713961C9327C000930A0397
S113168010930B0322C02115310519F0421753079B
S113169018F49A01BD01EF01DF01F801DBCF211538
S11316A03105F9F0281B390B2430310580F48A8187
S11316B09B816115710521F0FB019383828304C032
S11316C090930B0380930A03FE01329644C0FE01FB
S11316D0E20FF31F819391932250310939832883B8
S11316E03AC02091080330910903232B41F420913F
S11316F002013091030130930903209308032091E0
S11317000001309101012115310541F42DB73EB797
S11317104091040150910501241B350BE09108030D
S1131720F0910903E217F307A0F42E1B3F0B2817CF
S1131730390778F0AC014E5F5F4F2417350748F046
S11317404E0F5F1F509309034093080381939193B5
S113175002C0E0E0F0E0CF01DF91CF911F910F9143
S11317600895CF93DF93009709F481C0FC01329769
S113177013821282A0910A03B0910B03109781F493
S113178020813181820F931F209108033091090336
S11317902817390751F5F0930903E093080367C04C
S11317A0ED0120E030E0CE17DF0740F44A815B8191
S11317B09E0141155105F1F0EA01F5CFD383C283AF
S11317C040815181840F951FC817D90759F4888126
S11317D09981840F951F0296918380838A819B81CE
S11317E0938382832115310529F4F0930B03E0934D
S11317F00A033DC0E901FB83EA8349915991C40F6F
S1131800D51FEC17FD0761F480819181840F951F2A
S11318100296E90199838883828193819B838A83D9
S1131820E0E0F0E012968D919C911397009719F0E7
S1131830FD01DC01F7CF8D919C9111979D012E5FE5
S11318403F4F820F931F20910803309109032817FB
S1131850390769F4309729F410920B0310920A03A4
S113186002C013821282B0930903A0930803DF918C
S1131870CF910895FC010590615070400110D8F794
S1131880809590958E0F9F1F0895DC0101C06D9384
S113189041505040E0F70895FC01615070400190C0
S11318A00110D8F7809590958E0F9F1F0895DC0145
S11318B0FC01672F71917723E1F7329704C07C9183
S11318C06D9370836291AE17BF07C8F308950F93A9
S11318D01F93CF93DF93FB01238121FD03C08FEF7F
S11318E09FEF2CC022FF16C0468157812481358189
S11318F04217530744F4A081B1819D012F5F3F4FEC
S1131900318320838C93268137812F5F3F4F378328
S1131910268314C08B01EC01FB010084F185E02DCA
S11319200995892BE1F6D80116968D919C9117970C
S1131930019617969C938E931697CE01DF91CF91C3
S11319401F910F910895FA01AA27283051F12031EF
S113195081F1E8946F936E7F6E5F7F4F8F4F9F4F3F
S1131960AF4FB1E03ED0B4E03CD0670F781F891F81
S11319709A1FA11D680F791F8A1F911DA11D6A0F4F
S1131980711D811D911DA11D20D009F468943F9102
S11319902AE0269F11243019305D3193DEF6CF0101
S11319A00895462F4770405D4193B3E00FD0C9F7C7
S11319B0F6CF462F4F70405D4A3318F0495D31FD34
S11319C04052419302D0A9F7EACFB4E0A695979587
S11319D0879577956795BA95C9F70097610571055D
S11319E008959B01AC010A2E0694579547953795A7
S11319F02795BA95C9F7620F731F841F951FA01D01
S1091A000895F894FFCFE5
S1131A0600000C0320000000484225732C0A000045
S9030000FC
