S01C00004D6F746F72436F6E74726F6C6C65725F323031382E73726563A9
S113000051C000006DC000006BC0000069C000005A
S113001067C0000065C0000095C5000061C0000015
S11300205FC000005DC000005BC0000059C000005C
S1130030AEC4000055C0000053C0000051C0000011
S113004025C400000C949809C5C6000049C00000EE
S113005047C00000C0C20000A0C2000041C00000B0
S11300603FC000003DC000003BC0000039C000009C
S113007037C0000035C0000033C0000031C00000AC
S1130080E3C20000C3C200002BC0000029C000006E
S113009027C00000BC06C106C706CD06D306D80695
S11300A0DE06E40611241FBECFEFD0E1DEBFCDBFD4
S11300B011E0A0E0B1E0E4EAF8E100E00BBF02C027
S11300C007900D92A831B107D9F723E0A8E1B1E078
S11300D001C01D92A13AB207E1F761D30C94500C10
S11300E08FCF8F929F92AF92BF92CF92DF92EF9277
S11300F0FF92CF93DF930E94D4096B017C0180911E
S1130100180181111CC02AE037ED43E25CE3C7010A
S1130110B6010E948C0B9B01AC0160911901709196
S11301201A0180911B0190911C010E94D5096093D2
S1130130190170931A0180931B0190931C012CE503
S11301403FE842EC50E46091190170911A018091EA
S11301501B0190911C010E943D0A4B015C0123EAA2
S113016036E043ED5AE3C701B6010E948C0B9B01B4
S1130170AC01C501B4010E94D50920E030E048E497
S113018052E40E94D5096B017C01609300017093D5
S11301900101809302019093030120E030E04EEBD3
S11301A052E40E94880B181684F480E090E0AEEBD1
S11301B0B2E48093000190930101A0930201B093F3
S11301C0030181E08093180119C020E030E040EA87
S11301D050E4C701B6010E94390A88237CF480E008
S11301E090E0A0EAB0E48093000190930101A09311
S11301F00201B093030181E080931801C09196003D
S1130200D091970020E030E048EC52E46091000186
S11302107091010180910201909103010E943D0AB5
S11302206B017C01BE0180E090E00E94D60A9B0134
S1130230AC01C701B6010E948C0B0E94A50AE8E933
S1130240F0E0718360838081918190939B0080931F
S11302509A00DF91CF91FF90EF90DF90CF90BF9005
S1130260AF909F908F9008956D987598ED98EAE6F9
S1130270F0E080818C608083E59AED9A08958F92F6
S11302809F92AF92BF92CF92DF92EF92FF921F9311
S1130290CF93DF931F92CDB7DEB76C017B01142F90
S11302A0FB016081718180E090E00E94D60A20E029
S11302B030E040E05FE30E948C0B23EC35EF48E430
S11302C050E40E948C0B20E030E040E85EE30E94A2
S11302D08C0B4B015C01612F70E080E090E00E9488
S11302E0D80A9B01AC01C501B4010E943D0A0E94D9
S11302F0AA0A69831981F601608170E080E090E0C8
S11303000E94D80A26E636E646E65FE30E948C0B96
S11303104B015C01612F70E080E090E00E94D80AFC
S11303202DEC3CEC4CEC5DE30E948C0B9B01AC018E
S1130330C501B4010E94D5090E94AA0AF60160838E
S1130340F701118210820F90DF91CF911F91FF90DE
S1130350EF90DF90CF90BF90AF909F908F900895D3
S1130360909110039F5F9F712091EE029217E1F329
S1130370E92FF0E0EB5CFC4F80832FB7F894909367
S11303801003E1ECF0E08081806280832FBF089548
S1130390CF93DF93EC012196FC018081882321F027
S11303A0DFDF89918111FCCFDF91CF910895CF9345
S11303B0DF93CDB7DEB727970FB6F894DEBF0FBE35
S11303C0CDBF4AE0BE016F5F7F4F0E94150CCE0186
S11303D00196DEDF27960FB6F894DEBF0FBECDBFC1
S11303E0DF91CF9108959091EE02809110039813BC
S11303F0FACF0895909134039F5F9F712091320347
S11304009217E1F3E92FF0E0E051FD4F80832FB71D
S1130410F89490933403E9ECF0E080818062808367
S11304202FBF0895CF93C82FFB018485958501972D
S113043039F0CA3011F48DE093DF8C2F91DF06C0C0
S1130440CA3011F48DE0D6DF8C2FD4DF80E090E049
S1130450CF9108958091EF0290913103891759F05B
S11304608F5F982F9F71E92FF0E0E353FD4F808158
S11304709093EF02089580E00895EF92FF920F9316
S11304801F93CF93DF937C01162FE4DFF701808362
S11304908132D8F3E70121961230C1F01350812F35
S11304A090E002968701080F191FD4DF8883882300
S11304B0E1F38D3021F4CEDF8823E9F307C08132E4
S11304C028F021960C171D0781F7E8011882DF91A7
S11304D0CF911F910F91FF90EF900895CF93DF93E9
S11304E0CDB7DEB727970FB6F894DEBF0FBECDBFEA
S11304F067E0CE010196C1DFCE0101960E94F80BA0
S113050027960FB6F894DEBF0FBECDBFDF91CF9113
S113051008958091EF0290913103891761F08F5F04
S11305208F71E82FF0E0E353FD4F90818093EF0249
S1130530892F90E008958FEF9FEF08958091ED0249
S113054090913303891761F08F5F8F71E82FF0E08A
S1130550EF5EFC4F90818093ED02892F90E0089527
S11305608FEF9FEF0895CF93DF93FC0184859585EA
S1130570019741F0CEDFEC019923E4F3F1DECE01E3
S1130580992707C0DBDFEC019923E4F333DFCE01C5
S113059099279927DF91CF9108950F930FB7EF9380
S11305A0FF93E091EE02F0911003E395EF71EF13E6
S11305B005C0F091C100FF7DF093C100E093EE020D
S11305C0F0E0EB5CFC4FE081E093C600FF91EF911B
S11305D00FBF0F9118950F930FB79F939091C6007B
S11305E0EF93FF93E0913103F091EF02E395EF7104
S11305F0FE1731F0E0933103F0E0E353FD4F9083B5
S1130600FF91EF919F910FBF0F9118950F930FB723
S1130610EF93FF93E0913203F0913403E395EF718C
S1130620EF1305C0F091C900FF7DF093C900E0937A
S11306303203F0E0E051FD4FE081E093CE00FF9102
S1130640EF910FBF0F9118950F930FB79F93909150
S1130650CE00EF93FF93E0913303F091ED02E39525
S1130660EF71FE1731F0E0933303F0E0EF5EFC4FDF
S11306709083FF91EF919F910FBF0F911895E1E83F
S1130680F0E080818560808380818860808310921F
S1130690850010928400EFE6F0E080818260808320
S11306A08CE790E09093890080938800089584B546
S11306B0836084BD84B5886084BD16BCEEE6F0E03A
S11306C08081826080838FE487BD08950F931F9398
S11306D0CF93DF938C01EB01CB01C2D4882331F19A
S11306E088819981803121E0920721F08033924002
S11306F091F01CC0F8018089811103C082E08787D2
S113070003C084E0F801878780E69AEE9093130192
S1130710809312010BC08E81F801868781E0878760
S113072080E69AEE9093130180931201DF91CF91AA
S11307301F910F910895EF92FF920F931F93CF9300
S1130740DF93FC012081222319F1EB018C010F2E90
S1130750F0E9EF2EF3E0FF2EF02D8F85F701838370
S11307608E858483688179818A819B81F3D6F701A0
S11307707683658380919A0090919B00908787830C
S11307808D8590E092878187C701ADD4F8011082EE
S1130790DF91CF911F910F91FF90EF900895CF9328
S11307A0DF9300D0CDB7DEB7F894812C912C54019F
S11307B0750164010DEC1CEC2CE43DE34DEC5CECA8
S11307C06CEC7DE388E793E0D4D10BD560E070E076
S11307D080E090E0F0D353DF6ADF46DD84E073D538
S11307E01092C4001092C50088E98093C100EBE91F
S11307F0F3E084E091E0938382839183808358D5EE
S1130800E0E9F3E080E594E09183808388E08283EB
S1130810789480E853D5EE24E39400E61AEE6894C5
S1130820FF24F1F86DE171E086E391E084DF6DE689
S113083073E08DE191E04ADF809131039091EF0202
S1130840891B8F71D1F04ADE9A838983CCDD89813B
S11308509A810A9740F089819A81EDE1F1E08A500A
S11308608687F7860AC089819A81EDE1F1E086875F
S1130870E786109313010093120180911201909165
S1130880130195DD84E191E083DDCCCF1F920F92BB
S11308900FB60F9211240BB60F92CF92DF92EF9204
S11308A0FF922F933F934F935F936F937F938F9315
S11308B09F93AF93BF93EF93FF9380911201909115
S11308C01301009719F410922B0105C0019790931E
S11308D013018093120181E08093360180912C01F1
S11308E08250823098F4EDE1F1E0C080D180E28062
S11308F0F380668570E0719561957109072E000C8F
S1130900880B990B55D6A7019601EBDB80912C013E
S1130910843011F0813071F4EDE1F1E0C080D180D8
S1130920E280F380668570E080E090E03FD6A70126
S11309309601D7DB80912C0181110CC020911D01FF
S113094030911E0140911F015091200160E070E040
S1130950CB01C7DB44E66EE271E08AE291E08FDC12
S1130960FF91EF91BF91AF919F918F917F916F9183
S11309705F914F913F912F91FF90EF90DF90CF9037
S11309800F900BBE0F900FBE0F901F9018951F92E3
S11309900F920FB60F9211240BB60F922F933F9321
S11309A04F935F936F937F938F939F93AF93BF9373
S11309B0EF93FF93809135018430E1F463E371E0B8
S11309C0D3D121E043E050E060E371E083E391E0C0
S11309D08BD4E0E3F1E081818F71818390E0982FE3
S11309E088272281822B90933801809337011092BB
S11309F0350128C0833021F484E08093350144C05C
S1130A00809135018230F1F463E371E0ADD121E0EE
S1130A1043E050E060E371E083E391E065D4E0E318
S1130A20F1E081818F71818390E0982F8827228162
S1130A30822B90933A0180933901809135018F5F25
S1130A4080933501809135018130F1F463E371E0E5
S1130A508BD121E043E050E060E371E083E391E077
S1130A6043D4E0E3F1E081818F71818390E0982F9A
S1130A7088272281822B90933C0180933B018091B3
S1130A8035018F5F809335018091350181111EC03E
S1130A9063E371E069D121E043E050E060E371E099
S1130AA083E391E021D4E0E3F1E081818F718183DC
S1130AB090E0982F88272281822B90933E01809387
S1130AC03D01809135018F5F8093350160913D0137
S1130AD070913E018DE191E078D060913B0170917D
S1130AE03C0181E291E071D06091390170913A0149
S1130AF080E090E05BD520E030E044EA52E4BDD4ED
S1130B006093250170932601809327019093280117
S1130B10609137017091380189E291E0A3D0FF918F
S1130B20EF91BF91AF919F918F917F916F915F9161
S1130B304F913F912F910F900BBE0F900FBE0F90CE
S1130B401F9018951F920F920FB60F9211248F9336
S1130B509F9380912E0190912F01019690932F01E4
S1130B6080932E019F918F910F900FBE0F901F9035
S1130B7018958F929F92AF92BF92CF92DF92EF928D
S1130B80FF920F931F93CF93DF93CDB7DEB7FC0192
S1130B900487158726873787C48AD58AE68AF78A21
S1130BA0808A918AA28AB38A408751876287738731
S1130BB0DF91CF911F910F91FF90EF90DF90CF9035
S1130BC0BF90AF909F908F9008950F931F93CF93F2
S1130BD0DF9300D000D0CDB7DEB78C0180E090E089
S1130BE0E5D420E030E040EA50E496D520E030E05F
S1130BF040E859E391D527ED33EA40E150E4D4D3FA
S1130C0023EC34E64AE25DE338D420E030E040E40B
S1130C1050E433D469837A838B839C8369817A819A
S1130C208B819C812EEA37E441EE5DE3BED32DEC4B
S1130C303CEC4CE85FE370D569837A838B839C83B7
S1130C4089819A81AB81BC81F80180839183A283DD
S1130C50B3830F900F900F900F90DF91CF911F915E
S1130C600F9108950F931F93CF93DF9300D000D07B
S1130C70CDB7DEB78C0180E090E098D420E030E07E
S1130C8040EA50E449D520E030E040E859E344D557
S1130C9069837A838B839C8369817A818B819C812C
S1130CA02DEC3CEC4CE650E4E4D318168CF069814E
S1130CB07A818B819C8120E030E040EA51E42CD59C
S1130CC020E030E040EB51E46FD344D4F80160837A
S1130CD069817A818B819C8126E636E646E950E477
S1130CE0C8D31816E4F069817A818B819C812DEC3C
S1130CF03CEC4CE650E40CD518168CF469817A81EE
S1130D008B819C8120E030E04EE552E405D520E063
S1130D1030E84BE153E448D31DD4F8016083698182
S1130D207A818B819C8126E636E646E950E4F0D44C
S1130D3018168CF469817A818B819C8120E030E0E3
S1130D4048E453E4E9D420E030E042E554E42CD311
S1130D5001D4F80160830F900F900F900F90DF91F2
S1130D60CF911F910F91089590E08830910588F5F7
S1130D70FC01E65BFF4F33C586E0FB0180831182F3
S1130D80089586E0FB01808380E48183089586E0F2
S1130D90FB01808380E88183089586E0FB018083E2
S1130DA080EC8183089587E0FB018083118208959C
S1130DB087E0FB01808380E48183089587E0FB0161
S1130DC0808380E88183089587E0FB01808380EC41
S1130DD0818308951F920F920FB60F9211240BB6C0
S1130DE00F922F933F934F935F936F938F939F93A0
S1130DF0AF93BF93EF93FF93CF93DF931F92CDB73E
S1130E00DEB78091E00080FF47C09091DE0090FF44
S1130E1043C01092ED00EEEEF0E080818983808182
S1130E208F7B80838091440190914301981789F1CD
S1130E308F702BE0829FC0011124FC01EB50FE4F08
S1130E4020812093F00020812093F20021812093BF
S1130E50F3002381AAEFB0E02C9324812C93258105
S1130E602C9326812C9327812C9320852C932185E8
S1130E702C9322852C93FC01E950FE4F80818F70C6
S1130E8080648093EF00809144018F5F80934401DC
S1130E907DC0109242017AC081FF78C08091DE004B
S1130EA081FF74C080E18093ED0080914001282F80
S1130EB030E090914101291B31092F7733272031EC
S1130EC031050CF058C0E82FEF709091EF002E2FF1
S1130ED030E04BE0E49FF0011124EB5BFE4F9F7088
S1130EE04281407F942B92834091F2009091F000D4
S1130EF0407E9770942B90839091F3009183AAEF96
S1130F00B0E09C9193839C9194839C9195839C9154
S1130F1096839C9197839C9190879C9191879C91B7
S1130F2092878F5F80934001408142954695477038
S1130F305181652F660F660F660F862F842B952FC0
S1130F40929596959770892BB1F48BE0829FF0016E
S1130F50839FF00D1124EB5BFE4F8381833059F4A2
S1130F6098E088E10FB6F894A895809360000FBECE
S1130F7090936000FFCFEEEEF0E080818983898159
S1130F8080818F7D808380E88093EF000F90DF91D4
S1130F90CF91FF91EF91BF91AF919F918F916F91FD
S1130FA05F914F913F912F910F900BBE0F900FBE09
S1130FB00F901F901895CF93DF93E8EDF0E021E0B8
S1130FC020831092E2002CE02093E30027E3209397
S1130FD0E4001092E7001092E6001092E9001092EB
S1130FE0E8001092EC001092E500CDEED0E01882FB
S1130FF0AEEEB0E01C9220E128831C921092F40023
S1131000282F2295220F207E2093F600969587950F
S113101096958795969587958093F7001092F000A2
S1131020862F8295880F807E8093F200769567954F
S113103076956795769567956093F30080E880933D
S1131040EF0083E08093DC008093DE0080EB8093EC
S1131050DB0082E0808310923F01DF91CF910895FD
S1131060CF93DF93EC01409141012091400124177B
S113107089F1A42FAF708BE0A89FB0011124FB016C
S1131080EB5BFE4F20812295269527703181532FEB
S1131090550F550F550F252B3295369537702883EC
S11310A03983FB01E95BFE4F20812F702A832223C1
S11310B099F0DB01A85BBE4FFE01339630E02D5F53
S11310C03F4FCE01820F931F2D912193E817F9070B
S11310D0D9F702C080E004C04F5F4093410181E032
S11310E0DF91CF910895CF93DF93FC01ABEDB0E096
S11310F08C918F778C9380914201811127C010923B
S1131100ED0080818295880F807E8093F20080813B
S113111091819695879596958795969587958093D1
S1131120F300DF0113969F01255F3F4FCAEFD0E024
S11311309D919883A217B307D9F781E08093420168
S1131140828180648093EF0081E043C02091430159
S1131150822F90E030914401831B91098F77992766
S11311604097B1F1A22FAF708BE0A89FD00111245A
S1131170ED01CB50DE4F8081982F9295990F907E90
S113118088818F71892B88838081982F9695969575
S113119096958981807E892B898391819295990F77
S11311A0907E8F71892B89838281982F9F708A8189
S11311B0807F892B8A83A850BE4F339688E00190A4
S11311C00D928A95E1F72F5F2093430181E001C0DE
S11311D080E0EBEDF0E0908190689083DF91CF9117
S11311E008950F931F93CF93DF938EB1877C8EB9AD
S11311F08DB188638DB92C98249AA1E9B0E08C91C3
S113120088618C93E0E9F0E0808182608083808152
S11312108E7F8083C0EBD0E088818864888380815E
S11312208068808380818F7B8083808180628083DB
S113123080818061808388818062888388818F7EB9
S113124088838C9181608C938C91897F8C93E6E95F
S1131250F0E089E991E091838083C8E9D0E01982C4
S113126018820AE910E0D80111961C921E9210927D
S11312709D0010929C001092B3006081718180E007
S113128090E094D120E030E040E05FE345D25DD1CE
S11312907983688388819981F80191838083DF91C0
S11312A0CF911F910F91089595B1892B85B9089518
S11312B084B1806E84B980EEF7CF089595B180959E
S11312C0982395B9089594B1976094B982FB9927AE
S11312D090F9282F227081708065822B8CBD8CB58B
S11312E0837F8CBD9DBD0895CF93DF93EC01289837
S11312F041155105C1F0FB01DC01460F571F8FEF6B
S1131300209711F09C9101C0982F9EBD0DB407FE4B
S1131310FDCF6115710511F09EB59083319611963C
S1131320E417F50769F72111289ADF91CF91089501
S11313301F920F920FB60F9211240BB60F922F9398
S11313403F934F935F936F937F938F93AF93BF9329
S1131350EF93FF93A5ECB2E0E5EAF2E025EC32E08E
S11313608D91882359F04081518162817381505E4F
S11313706F4F7F4F40835183628373833496E217A8
S1131380F30771F7FF91EF91BF91AF918F917F9127
S11313906F915F914F913F912F910F900BBE0F90E2
S11313A00FBE0F901F9018955058BB27AA270ED038
S11313B075C166D130F06BD120F031F49F3F11F448
S11313C01EF45BC10EF4E095E7FB51C1E92F77D120
S11313D080F3BA17620773078407950718F071F44E
S11313E09EF58FC10EF4E0950B2EBA2FA02D0B01A4
S11313F0B90190010C01CA01A0011124FF27591B56
S113140099F0593F50F4503E68F11A16F040A22F5B
S1131410232F342F4427585FF3CF469537952795CC
S1131420A795F0405395C9F77EF41F16BA0B620BCB
S1131430730B840BBAF09150A1F0FF0FBB1F661F12
S1131440771F881FC2F70EC0BA0F621F731F841F55
S113145048F4879577956795B795F7959E3F08F07B
S1131460B3CF9395880F08F09927EE0F979587953A
S11314700895D9D008F481E008950CD00FC107D1A4
S113148040F0FED030F021F45F3F19F0F0C051116C
S113149039C1F3C014D198F39923C9F35523B1F397
S11314A0951B550BBB27AA2762177307840738F0CF
S11314B09F5F5F4F220F331F441FAA1FA9F333D02E
S11314C00E2E3AF0E0E830D091505040E695001CE2
S11314D0CAF729D0FE2F27D0660F771F881FBB1F9E
S11314E0261737074807AB07B0E809F0BB0B802D78
S11314F0BF01FF2793585F4F2AF09E3F510568F0C4
S1131500B6C000C15F3FECF3983EDCF38695779557
S11315106795B795F7959F5FC9F7880F911D9695C5
S1131520879597F90895E1E0660F771F881FBB1F21
S1131530621773078407BA0720F0621B730B840BCE
S1131540BA0BEE1F88F7E095089504D06894B111A2
S1131550D9C00895BCD088F09F5790F0B92F99272F
S1131560B751A0F0D1F0660F771F881F991F1AF0AA
S1131570BA95C9F712C0B13081F0C3D0B1E0089573
S1131580C0C0672F782F8827B85F39F0B93FCCF3F4
S1131590869577956795B395D9F73EF490958095A0
S11315A0709561957F4F8F4F9F4F0895E89409C0C0
S11315B097FB3EF490958095709561957F4F8F4F82
S11315C09F4F9923A9F0F92F96E9BB279395F69598
S11315D0879577956795B795F111F8CFFAF4BB0F16
S11315E011F460FF1BC06F5F7F4F8F4F9F4F16C07A
S11315F0882311F096E911C0772321F09EE8872F04
S1131600762F05C0662371F096E8862F70E060E0BF
S11316102AF09A95660F771F881FDAF7880F969538
S1131620879597F90895990F0008550FAA0BE0E8DC
S1131630FEEF16161706E807F907C0F01216130690
S1131640E407F50798F0621B730B840B950B39F4D0
S11316500A2661F0232B242B252B21F408950A2636
S113166009F4A140A6958FEF811D811D089597F976
S11316709F6780E870E060E008959FEF80EC089534
S113168000240A941616170618060906089500245D
S11316900A9412161306140605060895092E0394D7
S11316A0000C11F4882352F0BB0F40F4BF2B11F44B
S11316B060FF04C06F5F7F4F8F4F9F4F089557FDAA
S11316C09058440F551F59F05F3F71F04795880FAC
S11316D097FB991F61F09F3F79F087950895121643
S11316E013061406551FF2CF4695F1DF08C01616EF
S11316F017061806991FF1CF8695710561050894A0
S11317000895E894BB2766277727CB0197F90895B6
S11317108ADF08F48FEF08950BD0C0CFB1DF28F033
S1131720B6DF18F0952309F0A2CFA7CF1124EACF92
S1131730C6DFA0F3959FD1F3950F50E0551F629F2C
S1131740F001729FBB27F00DB11D639FAA27F00D16
S1131750B11DAA1F649F6627B00DA11D661F829F3D
S11317602227B00DA11D621F739FB00DA11D621F22
S1131770839FA00D611D221F749F3327A00D611D3F
S1131780231F849F600D211D822F762F6A2F112421
S11317909F5750408AF0E1F088234AF0EE0FFF1F74
S11317A0BB1F661F771F881F91505040A9F79E3FAB
S11317B0510570F05CCFA6CF5F3FECF3983EDCF3AD
S11317C0869577956795B795F795E7959F5FC1F7E8
S11317D0FE2B880F911D9695879597F90895EE0F26
S11317E0FF1F0024001C0BBE0790F691E02D099406
S11317F0FC0188279927E89421912032E9F32930C4
S113180010F02E30C8F32B3239F02D3231F46894B5
S113181003C015D0820F911D219120532A30C8F3A3
S11318201EF4909581959F4F0895BB274A3031F45B
S1131830992322F4BDE2909581959F4F09C07AE0E7
S1131840979F902D879F802D910D11240895BB277C
S1131850FB015527AA27880F991FAA1FA41710F068
S1131860A41B83955051B9F7A05DAA3308F0A95D74
S1131870A193009779F7B111B1931192CB0100C0F4
S1131880DC01FC01672F71917723E1F7329704C0E3
S11318907C916D9370836291AE17BF07C8F308956E
S10718A0F894FFCFE6
S11318A40000484200000003000000001202B302DA
S10B18B4000060EA0D0A0000C7
S9030000FC
