:1000000049C0000065C0000063C0000061C000007E
:100010005FC000005DC000005BC0000059C0000070
:1000200057C0000055C0000053C0000051C0000080
:1000300026C200004DC000004BC0000049C00000B7
:100040004EC20000C2C5000042C3000041C0000013
:100050003FC000003DC000003BC0000039C00000B0
:1000600037C0000082C2000033C0000031C0000071
:100070002FC000002DC000002BC0000029C00000D0
:1000800027C0000025C0000023C0000021C00000E0
:100090001FC0000011241FBECFEFD0E1DEBFCDBFD7
:1000A00011E0A0E0B1E0ECECF3E100E00BBF02C036
:1000B00007900D92AA30B107D9F723E0AAE0B1E08A
:1000C00001C01D92A630B207E1F785D10C94E40976
:1000D00097CF8F929F92AF92BF92CF92DF92EF9283
:1000E000FF92CF93DF93C9D54B015C012AE037ED36
:1000F00043E25CE37AD720910A0130910B014091F1
:100100000C0150910D01BAD56B017C0160930A017D
:1001100070930B0180930C0190930D012CE132ED53
:1001200048E259E3C501B40160D74B015C0123EEFD
:1001300035EA4BE15FE3C701B60108D69B01AC018C
:10014000C501B4019BD520E030E048E452E496D5E7
:100150006B017C0160930601709307018093080195
:100160009093090120E030E04EEB52E43AD71816A4
:100170006CF480E090E0AEEBB2E4809306019093E3
:100180000701A0930801B093090115C020E030E0F9
:1001900040EA50E4C701B601D5D5882364F480E075
:1001A00090E0A0EAB0E48093060190930701A09349
:1001B0000801B0930901C0919600D091970020E00A
:1001C00030E048EC52E460910601709107018091A3
:1001D000080190910901BAD56B017C01BE0180E054
:1001E00090E04DD69B01AC01C701B601FED616D6F4
:1001F000E8E9F0E0718360838081918190939B00B6
:1002000080939A00DF91CF91FF90EF90DF90CF9095
:10021000BF90AF909F908F900895E1E8F0E08081CB
:100220008360808380818860808310928500109233
:100230008400EFE6F0E080818260808383ED90E3CC
:100240009093890080938800089584B5856084BD6B
:1002500084B5886084BD16BCEEE6F0E080818260E3
:1002600080838FE487BD0895882311F02B9808952B
:100270002B9A08950F931F93CF93DF938C01EB017B
:10028000CB016BD3882349F188819981803222E0A8
:100290009207F1F020F48031914049F01EC0803384
:1002A00022E0920761F08834944029F016C08B81D7
:1002B000F801858312C08B81F80180830EC08E8186
:1002C000F80181838C81827082838D81838705C050
:1002D0008B819C81F80194838383DF91CF911F915F
:1002E0000F910895CF93DF93FC012081222319F110
:1002F000FB01EC01A1EFB2E0828513968C9313977A
:10030000818114968C9314978681978116969C937D
:100310008E93159780919A0090919B0018969C93CC
:100320008E931797838194811A969C938E93199735
:10033000CD0156D31882DF91CF9108950F931F936B
:10034000CF93DF9300D000D0CDB7DEB78C0180E033
:1003500090E095D523E333E343E550E446D620E02F
:1003600030E040E85AE341D627ED33EA40E150E47B
:1003700084D423EC34E64AE25DE3E8D420E030E0C4
:1003800040E450E4E3D469837A838B839C8369815E
:100390007A818B819C812EEA37E441EE5DE36ED455
:1003A0002DEC3CEC4CE85FE320D669837A838B83A9
:1003B0009C8389819A81AB81BC81F8018083918380
:1003C000A283B3830F900F900F900F90DF91CF9186
:1003D0001F910F910895F894812C912C540175016F
:1003E00064010DEC1CEC2CE43DE34DEC5CEC6CEC9E
:1003F0007DE389ED92E01BD12ED470D389E193E0A7
:10040000D0D360E070E080E090E052D206DF1DDFE4
:100410003AD1ECE7F0E08081807E80838081826049
:100420008083C8D3E1EFF2E080E594E0918380839C
:1004300088E082837894239A80E016DF80E8C0D336
:100440006EE071E083E291E04DDF6EEC72E08EE0F1
:1004500091E010DF609121017091220180E090E035
:100460000ED520E030E040E85AE3BFD560931A0192
:1004700070931B0180931C0190931D01E1CF1F928B
:100480000F920FB60F9211240BB60F922F933F933A
:100490004F935F936F937F938F939F93AF93BF938C
:1004A000EF93FF9381E08093230160911F0170918E
:1004B000200184E291E042DFFF91EF91BF91AF9183
:1004C0009F918F917F916F915F914F913F912F916C
:1004D0000F900BBE0F900FBE0F901F9018951F929C
:1004E0000F920FB60F9211240BB60F92CF92DF929C
:1004F000EF92FF922F933F934F935F936F937F936E
:100500008F939F93AF93BF93EF93FF9360911A01E3
:1005100070911B0180911C0190911D01C0902401DC
:10052000D0902501E0902601F090270120E030E0F6
:1005300040EA50E45AD5A7019601CBDDFF91EF9137
:10054000BF91AF919F918F917F916F915F914F91EB
:100550003F912F91FF90EF90DF90CF900F900BBEC7
:100560000F900FBE0F901F9018951F920F920FB60D
:100570000F9211240BB60F922F933F934F935F93DB
:100580006F937F938F939F93AF93BF93EF93FF935B
:1005900080911E01833089F4209178008091790048
:1005A00090E0982F8827820F911D909320018093CF
:1005B0001F0110921E0180E01EC0823039F483E0DA
:1005C0007ED080911E018F5F80931E0180911E015D
:1005D000813089F4209178008091790090E0982F03
:1005E0008827820F911D909322018093210182E040
:1005F00080931E0109C0811107C082E060D0809104
:100600001E018F5F80931E01FF91EF91BF91AF910B
:100610009F918F917F916F915F914F913F912F911A
:100620000F900BBE0F900FBE0F901F9018958F92DA
:100630009F92AF92BF92CF92DF92EF92FF920F9371
:100640001F93CF93DF93CDB7DEB7FC0104871587E7
:1006500026873787C48AD58AE68AF78A808A918A6C
:10066000A28AB38A4087518762877387DF91CF91CF
:100670001F910F91FF90EF90DF90CF90BF90AF90C0
:100680009F908F900895ECE7F0E0808180648083F4
:10069000EAE7F0E0808184608083808180628083EB
:1006A000808188608083ABE7B0E08C91887F8C93F9
:1006B0008081806880838081806480830895ECE7F6
:1006C000F0E09081987F8770892B808308951F9236
:1006D0000F920FB60F9211240BB60F922F933F93E8
:1006E0004F935F936F938F939F93AF93BF93EF93CA
:1006F000FF93CF93DF931F92CDB7DEB78091E000D9
:1007000080FF47C09091DE0090FF43C01092ED0043
:10071000EEEEF0E08081898380818F7B8083809101
:100720002D0190912C01981789F18F702BE0829FF9
:10073000C0011124FC01E252FE4F20812093F00001
:1007400020812093F20021812093F3002381AAEFDE
:10075000B0E02C9324812C9325812C9326812C931B
:1007600027812C9320852C9321852C9322852C93F3
:10077000FC01E052FE4F80818F7080648093EF0017
:1007800080912D018F5F80932D017DC010922B01F0
:100790007AC081FF78C08091DE0081FF74C080E163
:1007A0008093ED0080912901282F30E090912A015B
:1007B000291B31092F773327203131050CF058C020
:1007C000E82FEF709091EF002E2F30E04BE0E49F88
:1007D000F0011124E25DFE4F9F704281407F942B17
:1007E00092834091F2009091F000407E9770942B9C
:1007F00090839091F3009183AAEFB0E09C91938352
:100800009C9194839C9195839C9196839C919783D2
:100810009C9190879C9191879C9192878F5F809308
:10082000290140814295469547705181652F660F99
:10083000660F660F862F842B952F9295969597704D
:10084000892BB1F48BE0829FF001839FF00D11247E
:10085000E25DFE4F8381833059F498E088E10FB662
:10086000F894A895809360000FBE90936000FFCF2E
:10087000EEEEF0E080818983898180818F7D8083A5
:1008800080E88093EF000F90DF91CF91FF91EF917F
:10089000BF91AF919F918F916F915F914F913F91D8
:1008A0002F910F900BBE0F900FBE0F901F901895B9
:1008B000CF93DF93E8EDF0E021E020831092E20097
:1008C0002CE02093E30027E32093E4001092E7005C
:1008D0001092E6001092E9001092E8001092EC00ED
:1008E0001092E500CDEED0E01882AEEEB0E01C92A2
:1008F00020E128831C921092F400282F2295220FC9
:10090000207E2093F60096958795969587959695E7
:1009100087958093F7001092F000862F8295880FBC
:10092000807E8093F20076956795769567957695AB
:1009300067956093F30080E88093EF0083E08093F5
:10094000DC008093DE0080EB8093DB0082E080831C
:1009500010922801DF91CF910895CF93DF93EC019E
:1009600040912A0120912901241789F1A42FAF7009
:100970008BE0A89FB0011124FB01E25DFE4F2081B6
:100980002295269527703181532F550F550F550FFE
:10099000252B32953695377028833983FB01E05D2E
:1009A000FE4F20812F702A83222399F0DB01AF5C58
:1009B000BE4FFE01339630E02D5F3F4FCE01820FD8
:1009C000931F2D912193E817F907D9F702C080E012
:1009D00004C04F5F40932A0181E0DF91CF910895D9
:1009E000CF93DF93FC01ABEDB0E08C918F778C93CC
:1009F00080912B01811127C01092ED00808182959A
:100A0000880F807E8093F2008081918196958795F2
:100A100096958795969587958093F300DF011396B9
:100A20009F01255F3F4FCAEFD0E09D919883A217A9
:100A3000B307D9F781E080932B0182818064809392
:100A4000EF0081E043C020912C01822F90E0309193
:100A50002D01831B91098F7799274097B1F1A22F20
:100A6000AF708BE0A89FD0011124ED01C252DE4F80
:100A70008081982F9295990F907E88818F71892B14
:100A800088838081982F9695969596958981807E0A
:100A9000892B898391819295990F907E8F71892BF3
:100AA00089838281982F9F708A81807F892B8A8396
:100AB000AF51BE4F339688E001900D928A95E1F7D1
:100AC0002F5F20932C0181E001C080E0EBEDF0E08E
:100AD000908190689083DF91CF9108950F931F9339
:100AE000CF93DF938EB1877C8EB98DB188638DB93A
:100AF0002C98249AA1E9B0E08C9188618C93E0E96C
:100B0000F0E080818260808380818E7F8083C0EB73
:100B1000D0E0888188648883808180688083808138
:100B20008F7B8083808180628083808180618083ED
:100B300088818062888388818F7E88838C918160A0
:100B40008C938C91897F8C93E6E9F0E08FEF90E0B5
:100B500091838083C8E9D0E0198218820AE910E005
:100B6000D80111961C921E9210929D0010929C002A
:100B70001092B3006081718180E090E080D120E02C
:100B800030E040E05FE331D249D1798368838881E6
:100B90009981F80191838083DF91CF911F910F910B
:100BA00008959093970080939600089595B1892BAE
:100BB00085B9089584B1806E84B980EEF7CF089529
:100BC00095B18095982395B908951F920F920FB60D
:100BD0000F9211240BB60F922F933F934F935F9375
:100BE0006F937F938F93AF93BF93EF93FF93AEEA8F
:100BF000B2E0EEE8F2E02EEA32E08D91882359F07F
:100C00004081518162817381505E6F4F7F4F40837D
:100C10005183628373833496E217F30771F7FF9170
:100C2000EF91BF91AF918F917F916F915F914F91B4
:100C30003F912F910F900BBE0F900FBE0F901F9002
:100C40001895E0ECF0E0908195FFFDCF8093C60011
:100C500081E090E008951092C5001092C40086E0F3
:100C60008093C200E1ECF0E080818860808360E0E6
:100C700070E081E296E01CC208955058BB27AA2775
:100C80000ED075C166D130F06BD120F031F49F3FAA
:100C900011F41EF45BC10EF4E095E7FB51C1E92F9E
:100CA00077D180F3BA17620773078407950718F0A6
:100CB00071F49EF58FC10EF4E0950B2EBA2FA02D86
:100CC0000B01B90190010C01CA01A0011124FF27F9
:100CD000591B99F0593F50F4503E68F11A16F040F4
:100CE000A22F232F342F4427585FF3CF46953795F3
:100CF0002795A795F0405395C9F77EF41F16BA0BB8
:100D0000620B730B840BBAF09150A1F0FF0FBB1F65
:100D1000661F771F881FC2F70EC0BA0F621F731FAE
:100D2000841F48F4879577956795B795F7959E3F0B
:100D300008F0B3CF9395880F08F09927EE0F979599
:100D400087950895D9D008F481E008950CD00FC19B
:100D500007D140F0FED030F021F45F3F19F0F0C031
:100D6000511139C1F3C014D198F39923C9F3552314
:100D7000B1F3951B550BBB27AA276217730784078E
:100D800038F09F5F5F4F220F331F441FAA1FA9F344
:100D900033D00E2E3AF0E0E830D091505040E69536
:100DA000001CCAF729D0FE2F27D0660F771F881F97
:100DB000BB1F261737074807AB07B0E809F0BB0B86
:100DC000802DBF01FF2793585F4F2AF09E3F5105AA
:100DD00068F0B6C000C15F3FECF3983EDCF3869547
:100DE00077956795B795F7959F5FC9F7880F911D20
:100DF0009695879597F90895E1E0660F771F881F0C
:100E0000BB1F621773078407BA0720F0621B730BBE
:100E1000840BBA0BEE1F88F7E095089504D0689410
:100E2000B111D9C00895BCD088F09F5790F0B92F68
:100E30009927B751A0F0D1F0660F771F881F991F2F
:100E40001AF0BA95C9F712C0B13081F0C3D0B1E041
:100E50000895C0C0672F782F8827B85F39F0B93F51
:100E6000CCF3869577956795B395D9F73EF4909531
:100E70008095709561957F4F8F4F9F4F0895E894AF
:100E800009C097FB3EF490958095709561957F4FD2
:100E90008F4F9F4F9923A9F0F92F96E9BB27939580
:100EA000F695879577956795B795F111F8CFFAF490
:100EB000BB0F11F460FF1BC06F5F7F4F8F4F9F4FC1
:100EC00016C0882311F096E911C0772321F09EE81F
:100ED000872F762F05C0662371F096E8862F70E085
:100EE00060E02AF09A95660F771F881FDAF7880F5F
:100EF0009695879597F90895990F0008550FAA0BB5
:100F0000E0E8FEEF16161706E807F907C0F012161C
:100F10001306E407F50798F0621B730B840B950B1F
:100F200039F40A2661F0232B242B252B21F4089574
:100F30000A2609F4A140A6958FEF811D811D089511
:100F400097F99F6780E870E060E008959FEF80EC7C
:100F5000089500240A94161617061806090608951F
:100F600000240A9412161306140605060895092E85
:100F70000394000C11F4882352F0BB0F40F4BF2BF4
:100F800011F460FF04C06F5F7F4F8F4F9F4F089534
:100F900057FD9058440F551F59F05F3F71F047952A
:100FA000880F97FB991F61F09F3F79F0879508950F
:100FB000121613061406551FF2CF4695F1DF08C02E
:100FC000161617061806991FF1CF8695710561054B
:100FD00008940895E894BB2766277727CB0197F9F3
:100FE00008958ADF08F48FEF08950BD0C0CFB1DFEA
:100FF00028F0B6DF18F0952309F0A2CFA7CF11246F
:10100000EACFC6DFA0F3959FD1F3950F50E0551FAF
:10101000629FF001729FBB27F00DB11D639FAA274D
:10102000F00DB11DAA1F649F6627B00DA11D661F9C
:10103000829F2227B00DA11D621F739FB00DA11DBD
:10104000621F839FA00D611D221F749F3327A00D77
:10105000611D231F849F600D211D822F762F6A2F13
:1010600011249F5750408AF0E1F088234AF0EE0F98
:10107000FF1FBB1F661F771F881F91505040A9F7A5
:101080009E3F510570F05CCFA6CF5F3FECF3983EDA
:10109000DCF3869577956795B795F795E7959F5F0C
:1010A000C1F7FE2B880F911D9695879597F90895A6
:1010B0000F931F93CF93DF93009731F46115710560
:1010C00019F480E090E039C08B01EC016EE070E033
:1010D00081E090E037D0FC01892B99F380E883838D
:1010E0000115110571F01387028781E883838091D0
:1010F000FC029091FD02892B21F4F093FD02E09314
:10110000FC022097C9F0D187C087838182608383E6
:101110008091FE029091FF02892B71F4F093FF02FF
:10112000E093FE028091000390910103892B21F44A
:10113000F0930103E0930003CF01DF91CF911F9162
:101140000F9108950F931F93CF93DF93869F800194
:10115000879F100D969F100D1124C8010DD0EC0132
:10116000009721F0A80160E070E027D1CE01DF9167
:10117000CF911F910F9108950F931F93CF93DF93FA
:101180008230910510F482E090E0E0910403F09148
:10119000050320E030E0A0E0B0E0309719F1408195
:1011A00051810281138148175907C8F084179507A8
:1011B00069F4109731F012960C93129713961C93C2
:1011C00027C0009304031093050322C021153105A5
:1011D00019F04217530718F49A01BD01EF01DF011E
:1011E000F801DBCF21153105F9F0281B390B24302C
:1011F000310580F48A819B816115710521F0FB0125
:101200009383828304C09093050380930403FE01BB
:10121000329644C0FE01E20FF31F81939193225056
:101220003109398328833AC02091020330910303A6
:10123000232B41F4209102013091030130930303E9
:101240002093020320910001309101012115310505
:1012500041F42DB73EB74091040150910501241B84
:10126000350BE0910203F0910303E217F307A0F4BA
:101270002E1B3F0B2817390778F0AC014E5F5F4FEC
:101280002417350748F04E0F5F1F50930303409318
:1012900002038193919302C0E0E0F0E0CF01DF917F
:1012A000CF911F910F910895CF93DF93009709F489
:1012B00081C0FC01329713821282A0910403B09185
:1012C0000503109781F420813181820F931F2091B3
:1012D0000203309103032817390751F5F0930303F4
:1012E000E093020367C0ED0120E030E0CE17DF0796
:1012F00040F44A815B819E0141155105F1F0EA01FC
:10130000F5CFD383C28340815181840F951FC817C5
:10131000D90759F488819981840F951F029691838A
:1013200080838A819B81938382832115310529F4EF
:10133000F0930503E09304033DC0E901FB83EA83D6
:1013400049915991C40FD51FEC17FD0761F48081B5
:101350009181840F951F0296E90199838883828188
:1013600093819B838A83E0E0F0E012968D919C91BB
:101370001397009719F0FD01DC01F7CF8D919C9137
:1013800011979D012E5F3F4F820F931F2091020303
:10139000309103032817390769F4309729F4109224
:1013A00005031092040302C013821282B093030358
:1013B000A0930203DF91CF910895DC0101C06D93EA
:0C13C00041505040E0F70895F894FFCF32
:0A13CC000000060320000000484264
:00000001FF
