S01C00004D6F746F72436F6E74726F6C6C65725F323031382E73726563A9
S113000049C0000065C0000063C0000061C000007A
S11300105FC000005DC000005BC0000059C000006C
S113002057C0000055C0000053C0000051C000007C
S11300306CC100004DC000004BC0000049C000006E
S113004047C00000B0C4000055C2000041C0000019
S11300503FC000003DC000003BC0000039C00000AC
S113006037C0000035C0000033C0000031C00000BC
S11300702FC000002DC000002BC0000029C00000CC
S113008027C0000025C0000023C0000021C00000DC
S11300901FC0000011241FBECFEFD0E1DEBFCDBFD3
S11300A011E0A0E0B1E0E6E9F1E100E00BBF02C03D
S11300B007900D92A630B107D9F722E0A6E0B1E08F
S11300C001C01D92A93FB207E1F7E7D00C94C9081B
S11300D097CFE1E8F0E0808183608083808188604D
S11300E080831092850010928400EFE6F0E0808116
S11300F08260808383ED90E39093890080938800ED
S11301000895882311F02B9808952B9A08950F933E
S11301101F93CF93DF938C01EB01CB012CD3882366
S113012039F188819981803222E09207E1F038F434
S113013080319140E9F48B81F801858319C08033C3
S113014022E0920739F08834944091F48B81F801CD
S113015080830EC08E81F80181838C8182708283BA
S11301608D81838705C08B819C81F801948383836F
S1130170DF91CF911F910F910895CF93DF93FC01ED
S11301802081222301F1FB01EC0182858093E702A7
S113019081818093E802868197819093EA0280931B
S11301A0E90280919A0090919B009093EC028093D5
S11301B0EB02838194819093EE028093ED0284EEAE
S11301C092E019D31882DF91CF9108958F929F9274
S11301D0AF92BF92CF92DF92EF92FF920F931F9351
S11301E0CF93DF9300D000D0CDB7DEB78C01609100
S11301F014017091150180E090E026D520E030E0F4
S113020040EA50E4D7D520E030E040E85AE3D2D5C4
S113021020E030E040E250E415D423EC34E64AE236
S11302205DE379D420E030E040E450E474D46983A1
S11302307A838B839C8389809A80AB80BC8026E6FA
S113024036E646E65FE3F80160817181828193813D
S1130250B1D56B017C012DEC3CEC4CEC5DE3C501AC
S1130260B401A8D59B01AC01C701B601ECD3F801D8
S113027060837183828393830F900F900F900F900C
S1130280DF91CF911F910F91FF90EF90DF90CF906E
S1130290BF90AF909F908F900895F894812C912CEB
S11302A05401750164010DEC1CEC2CE43DE34DECB0
S11302B05CEC6CEC7DE38CEC92E0CAD0B2D315D349
S11302C089E193E05DD360E070E080E090E0FFD1ED
S11302D000DFEAD05ED380E594E09093E50280935A
S11302E0E40288E08093E6027894239A80E009DFB0
S11302F080E854D366E071E086E191E03EDF61EC92
S113030072E086E091E003DFF5CF1F920F920FB603
S11303100F9211240BB60F92CF92DF92EF92FF92BD
S11303200F931F932F933F934F935F936F937F93F9
S11303308F939F93AF93BF93EF93FF93CF93DF93E9
S113034000D000D0CDB7DEB781E0809316011982CA
S11303501A821B821C8282E0C0D090931501809384
S1130360140183E0BAD08C0190931301809312019D
S113037087E191E02BDFB80180E090E065D420E0D4
S113038030E040E85AE316D569837A838B839C83F3
S113039069817A818B819C8123E333E343E75FE3C3
S11303A005D5181644F483E393E3A3E7BFE38983F5
S11303B09A83AB83BC8369817A818B819C812DEC88
S11303C03CEC4CE45DE3A3D387FF08C08DEC9CECCC
S11303D0ACE4BDE389839A83AB83BC8360919600CC
S11303E070919700C980DA80EB80FC8080E090E017
S11303F02BD4A7019601DED4F6D3709399006093B1
S11304009800809198009091990090939B0080931C
S11304109A000F900F900F900F90DF91CF91FF9162
S1130420EF91BF91AF919F918F917F916F915F9168
S11304304F913F912F911F910F91FF90EF90DF907B
S1130440CF900F900BBE0F900FBE0F901F9018957A
S11304508F929F92AF92BF92CF92DF92EF92FF92D0
S11304600F931F93CF93DF93CDB7DEB7FC010487BF
S1130470158726873787C48AD58AE68AF78A808AC9
S1130480918AA28AB38A4087518762877387DF91F2
S1130490CF911F910F91FF90EF90DF90CF90BF907D
S11304A0AF909F908F900895ECE7F0E08081806496
S11304B08083EAE7F0E080818460808380818062C9
S11304C08083ABE7B0E08C91887F8C9380818068D7
S11304D080838081806480830895ECE7F0E09081DC
S11304E0907E90839081892B808380917800909175
S11304F0790008951F920F920FB60F9211240BB634
S11305000F922F933F934F935F938F939F93EF9308
S1130510FF93CF93DF931F92CDB7DEB78091E000B6
S113052080FF4EC09091DE0090FF4AC01092ED0013
S11305308091EE0089838091EE008F7B8093EE00A2
S11305408091200190911F019817B9F18F702BE0D1
S1130550829FC0011124FC01EF52FE4F20812093A1
S1130560F00020812093F20021812093F300238165
S11305702093FA0024812093FA0025812093FA0025
S113058026812093FA0027812093FA002085209366
S1130590FA0021852093FA0022852093FA00FC01B9
S11305A0ED52FE4F80818F7080648093EF008091C4
S11305B020018F5F8093200178C010921E0175C0C6
S11305C081FF73C08091DE0081FF6FC080E1809362
S11305D0ED0090911C01292F30E080911D01281B12
S11305E031092F773327203131050CF052C0E92F20
S11305F0EF708091EF002BE0E29FF0011124EF5D9A
S1130600FE4F282F2F708281807F822B828320913E
S1130610F2008091F000207E8770822B80834091CD
S1130620F30041835091FA0053832091FA0024830C
S11306302091FA0025832091FA0026832091FA0064
S113064027832091FA0020872091FA0021872091A6
S1130650FA0022879F5F90931C018295869587708C
S1130660942F990F990F990F292F282B342F3295F6
S113067036953770232B69F4533059F498E088E1A8
S11306800FB6F894A895809360000FBE9093600015
S1130690FFCF8091EE00898389818091EE008F7D68
S11306A08093EE0080E88093EF000F90DF91CF916C
S11306B0FF91EF919F918F915F914F913F912F9176
S11306C00F900BBE0F900FBE0F901F901895CF93F5
S11306D0DF93E8EDF0E021E020832EEF2093E200A9
S11306E02CE02093E30027E32093E4001092E7003A
S11306F01092E6001092E9001092E8001092EC00CB
S11307001092E500CDEED0E01882AEEEB0E01C927F
S113071020E128831C921092F400282F2295220FA6
S1130720207E2093F60023E0969587952A95E1F79D
S11307308093F7001092F000862F8295880F807EB8
S11307408093F20033E0769567953A95E1F76093EC
S1130750F30080E88093EF0083E08093DC008093D3
S1130760DE0080EB8093DB0082E0808310921B012B
S1130770DF91CF910895FC0120911D0180911C010E
S11307808217B9F1622F6F708BE0689FA00111246A
S1130790DA01AF5DBE4F8C91829586958770119674
S11307A09C91392F330F330F330F832B92959695EA
S11307B0977080839183DA01AD5DBE4F8C918F7009
S11307C082833396BA0140E050E090E0481759071D
S11307D05CF4DA01A60FB71FAF5DBE4F13963C91D0
S11307E031934F5F5F4FF2CF2F5F20931D0181E064
S11307F0089580E00895CF93DF93FC018091DB009E
S11308008F778093DB0080911E01811123C01092A9
S1130810ED0080818295880F807E8093F200808134
S1130820918123E0969587952A95E1F78093F300CB
S1130830DF011396CF010B962D912093FA00A81790
S1130840B907D1F781E080931E018281806480938F
S1130850EF0040C020911F01822F90E030912001D1
S1130860831B91098F7799274097B1F1A22FAF701D
S11308708BE0A89FD0011124ED01CF52DE4F80817F
S1130880982F9295990F907E88818F71892B8883F8
S11308908081982F9695969596958981807E892B4F
S11308A0898391819295990F907E8F71892B898389
S11308B08281982F9F708A81807F892B8A83AC5292
S11308C0BE4F339688E001900D928A95E1F72F5F31
S11308D020931F0181E001C080E09091DB009068CB
S11308E09093DB00DF91CF910895CF93DF938EB186
S11308F0877C8EB98DB188638DB92C98249AA1E92F
S1130900B0E08C9188618C93E0E9F0E080818260B2
S1130910808380818E7F8083C0EBD0E0888188646F
S1130920888380818068808380818F7B80838081BD
S113093080628083808180618083888180628883F3
S113094088818F7E88838C9181608C938C91897F40
S11309508C938FEF90E09093970080939600109281
S113096099001092980010929B0010929A00109295
S11309709D0010929C001092B300DF91CF910895D6
S11309809093970080939600089595B1892B85B92B
S1130990089584B1806E84B980EEF7CF95B18095C7
S11309A0982395B908951F920F920FB60F921124B0
S11309B00BB60F928F939F93AF93BF93CF93DF9315
S11309C0EF93FF93C1EAD2E0E1E8F2E08991882352
S11309D059F080819181A281B381905EAF4FBF4F66
S11309E080839183A283B383349682E0E13AF8074B
S11309F069F7FF91EF91DF91CF91BF91AF919F91F3
S1130A008F910F900BBE0F900FBE0F901F901895F3
S1130A109091C00095FFFCCF8093C60081E090E0E8
S1130A2008951092C5001092C40086E08093C2001D
S1130A30E1ECF0E080818860808360E070E088E031
S1130A4095E01BC25058BB27AA270ED075C166D1AA
S1130A5030F06BD120F031F49F3F11F41EF45BC1F0
S1130A600EF4E095E7FB51C1E92F77D180F3BA1773
S1130A70620773078407950718F071F49EF58FC118
S1130A800EF4E0950B2EBA2FA02D0B01B9019001A5
S1130A900C01CA01A0011124FF27591B99F0593FE9
S1130AA050F4503E68F11A16F040A22F232F342F31
S1130AB04427585FF3CF469537952795A795F0407F
S1130AC05395C9F77EF41F16BA0B620B730B840B94
S1130AD0BAF09150A1F0FF0FBB1F661F771F881F4C
S1130AE0C2F70EC0BA0F621F731F841F48F48795A4
S1130AF077956795B795F7959E3F08F0B3CF939593
S1130B00880F08F09927EE0F979587950895D9D007
S1130B1008F481E008950CD00FC107D140F0FED055
S1130B2030F021F45F3F19F0F0C0511139C1F3C026
S1130B3014D198F39923C9F35523B1F3951B550B9D
S1130B40BB27AA2762177307840738F09F5F5F4F9C
S1130B50220F331F441FAA1FA9F333D00E2E3AF0DD
S1130B60E0E830D091505040E695001CCAF729D0F7
S1130B70FE2F27D0660F771F881FBB1F2617370746
S1130B804807AB07B0E809F0BB0B802DBF01FF2776
S1130B9093585F4F2AF09E3F510568F0B6C000C1DC
S1130BA05F3FECF3983EDCF3869577956795B795B0
S1130BB0F7959F5FC9F7880F911D9695879597F9CB
S1130BC00895E1E0660F771F881FBB1F6217730744
S1130BD08407BA0720F0621B730B840BBA0BEE1F59
S1130BE088F7E095089504D06894B111D9C00895A8
S1130BF0BCD088F09F5790F0B92F9927B751A0F037
S1130C00D1F0660F771F881F991F1AF0BA95C9F79C
S1130C1012C0B13081F0C3D0B1E00895C0C0672FD5
S1130C20782F8827B85F39F0B93FCCF3869577954C
S1130C306795B395D9F73EF4909580957095619535
S1130C407F4F8F4F9F4F0895E89409C097FB3EF460
S1130C5090958095709561957F4F8F4F9F4F992305
S1130C60A9F0F92F96E9BB279395F6958795779583
S1130C706795B795F111F8CFFAF4BB0F11F460FF43
S1130C801BC06F5F7F4F8F4F9F4F16C0882311F09B
S1130C9096E911C0772321F09EE8872F762F05C0AF
S1130CA0662371F096E8862F70E060E02AF09A954A
S1130CB0660F771F881FDAF7880F9695879597F93F
S1130CC00895990F0008550FAA0BE0E8FEEF1616D9
S1130CD01706E807F907C0F012161306E407F5072C
S1130CE098F0621B730B840B950B39F40A2661F0A0
S1130CF0232B242B252B21F408950A2609F4A14043
S1130D00A6958FEF811D811D089597F99F6780E84F
S1130D1070E060E008959FEF80EC089500240A9449
S1130D201616170618060906089500240A941216C2
S1130D301306140605060895092E0394000C11F4F5
S1130D40882352F0BB0F40F4BF2B11F460FF04C0A2
S1130D506F5F7F4F8F4F9F4F089557FD9058440FFB
S1130D60551F59F05F3F71F04795880F97FB991F06
S1130D7061F09F3F79F087950895121613061406C3
S1130D80551FF2CF4695F1DF08C016161706180650
S1130D90991FF1CF86957105610508940895E8942B
S1130DA0BB2766277727CB0197F908958ADF08F4D4
S1130DB08FEF08950BD0C0CFB1DF28F0B6DF18F065
S1130DC0952309F0A2CFA7CF1124EACFC6DFA0F361
S1130DD0959FD1F3950F50E0551F629FF001729FCC
S1130DE0BB27F00DB11D639FAA27F00DB11DAA1FEB
S1130DF0649F6627B00DA11D661F829F2227B00D38
S1130E00A11D621F739FB00DA11D621F839FA00DC2
S1130E10611D221F749F3327A00D611D231F849F12
S1130E20600D211D822F762F6A2F11249F57504069
S1130E308AF0E1F088234AF0EE0FFF1FBB1F661F04
S1130E40771F881F91505040A9F79E3F510570F0BD
S1130E505CCFA6CF5F3FECF3983EDCF386957795A5
S1130E606795B795F795E7959F5FC1F7FE2B880FB8
S1130E70911D9695879597F908950F931F93CF9396
S1130E80DF93009731F46115710519F480E090E067
S1130E9039C08B01EC016EE070E081E090E037D066
S1130EA0FC01892B99F380E883830115110571F006
S1130EB01387028781E883838091EF029091F00287
S1130EC0892B21F4F093F002E093EF022097C9F00C
S1130ED0D187C0878381826083838091F10290915E
S1130EE0F202892B71F4F093F202E093F102809103
S1130EF0F3029091F402892B21F4F093F402E0932D
S1130F00F302CF01DF91CF911F910F9108950F93B9
S1130F101F93CF93DF93869F8001879F100D969F29
S1130F20100D1124C8010DD0EC01009721F0A80187
S1130F3060E070E027D1CE01DF91CF911F910F9136
S1130F4008950F931F93CF93DF938230910510F48C
S1130F5082E090E0E091F702F091F80220E030E0C6
S1130F60A0E0B0E0309719F14081518102811381F2
S1130F7048175907C8F08417950769F4109731F09A
S1130F8012960C93129713961C9327C00093F702A2
S1130F901093F80222C02115310519F042175307A6
S1130FA018F49A01BD01EF01DF01F801DBCF21152F
S1130FB03105F9F0281B390B2430310580F48A817E
S1130FC09B816115710521F0FB019383828304C029
S1130FD09093F8028093F702FE01329644C0FE011A
S1130FE0E20FF31F819391932250310939832883AF
S1130FF03AC02091F5023091F602232B41F420915E
S11310000201309103013093F6022093F5022091FE
S11310100001309101012115310541F42DB73EB78E
S11310204091040150910501241B350BE091F50218
S1131030F091F602E217F307A0F42E1B3F0B2817DA
S1131040390778F0AC014E5F5F4F2417350748F03D
S11310504E0F5F1F5093F6024093F50281939193D4
S113106002C0E0E0F0E0CF01DF91CF911F910F913A
S11310700895CF93DF93009709F481C0FC01329760
S113108013821282A091F702B091F802109781F4B2
S113109020813181820F931F2091F5023091F60255
S11310A02817390751F5F093F602E093F50267C06B
S11310B0ED0120E030E0CE17DF0740F44A815B8188
S11310C09E0141155105F1F0EA01F5CFD383C283A6
S11310D040815181840F951FC817D90759F488811D
S11310E09981840F951F0296918380838A819B81C5
S11310F0938382832115310529F4F093F802E09358
S1131100F7023DC0E901FB83EA8349915991C40F79
S1131110D51FEC17FD0761F480819181840F951F21
S11311200296E90199838883828193819B838A83D0
S1131130E0E0F0E012968D919C911397009719F0DE
S1131140FD01DC01F7CF8D919C9111979D012E5FDC
S11311503F4F820F931F2091F5023091F60228171A
S1131160390769F4309729F41092F8021092F702C3
S113117002C013821282B093F602A093F502DF91AB
S1131180CF910895DC0101C06D9341505040E0F7C8
S10911900895F894FFCF5E
S10911960000F902200034
S9030000FC
