:1000000049C0000065C0000063C0000061C000007E
:100010005FC000005DC000005BC0000059C0000070
:1000200057C0000055C0000053C0000051C0000080
:100030001CC200004DC000004BC0000049C00000C1
:1000400047C000009EC5000019C3000041C0000069
:100050003FC000003DC000003BC0000039C00000B0
:1000600037C0000058C2000033C0000031C000009B
:100070002FC000002DC000002BC0000029C00000D0
:1000800027C0000025C0000023C0000021C00000E0
:100090001FC0000011241FBECFEFD0E1DEBFCDBFD7
:1000A00011E0A0E0B1E0E6EBF3E100E00BBF02C03D
:1000B00007900D92A630B107D9F723E0A6E0B1E092
:1000C00001C01D92A830B207E1F779D10C94D9098B
:1000D00097CF8F929F92AF92BF92CF92DF92EF9283
:1000E000FF92CF93DF939CD54B015C0127E137EB67
:1000F00041E559E34DD720910A0130910B01409120
:100100000C0150910D018DD56B017C0160930A01AA
:1001100070930B0180930C0190930D0125E636E658
:1001200046EE5CE3C501B40133D74B015C0123E12A
:1001300035EC44EC5BE3C701B601DBD59B01AC01B8
:10014000C501B4016ED520E030E048E452E469D541
:100150006B017C0120E030E04EEB52E415D718161D
:100160004CF0C0920601D0920701E0920801F09293
:1001700009010CC080E090E0AEEBB2E48093060190
:1001800090930701A0930801B093090120E030E0AB
:1001900040EA50E4609106017091070180910801E6
:1001A00090910901A2D587FF0CC080E090E0A0EA01
:1001B000B0E48093060190930701A0930801B093E7
:1001C0000901C0919600D091970020E030E048EC02
:1001D00052E46091060170910701809108019091AD
:1001E000090187D56B017C01BE0180E090E01AD641
:1001F0009B01AC01C701B601CBD6E3D57093990042
:1002000060939800809198009091990090939B0042
:1002100080939A00DF91CF91FF90EF90DF90CF9085
:10022000BF90AF909F908F900895E1E8F0E08081BB
:100230008360808380818860808310928500109223
:100240008400EFE6F0E080818260808383ED90E3BC
:1002500090938900809388000895882311F02B984B
:1002600008952B9A08950F931F93CF93DF938C01DA
:10027000EB01CB0144D3882339F188819981803205
:1002800022E09207E1F038F480319140E9F48B816B
:10029000F801858319C0803322E0920739F0883451
:1002A000944091F48B81F80180830EC08E81F80117
:1002B00081838C81827082838D81838705C08B814D
:1002C0009C81F80194838383DF91CF911F910F91DB
:1002D0000895CF93DF93FC012081222301F1FB01DC
:1002E000EC0182858093F60281818093F7028681FA
:1002F00097819093F9028093F80280919A009091EF
:100300009B009093FB028093FA02838194819093E7
:10031000FD028093FC0283EF92E031D31882DF91DB
:10032000CF9108950F931F93CF93DF9300D000D008
:10033000CDB7DEB78C0180E090E074D523E333E3E2
:1003400043E550E425D620E030E040E85AE320D6EB
:1003500027ED33EA40E150E463D423EC34E64AE28B
:100360005DE3C7D420E030E040E450E4C2D46983C8
:100370007A838B839C8369817A818B819C812EEA2D
:1003800037E441EE5DE34DD42DEC3CEC4CE85FE30B
:10039000FFD569837A838B839C8389819A81AB8122
:1003A000BC81F80180839183A283B3830F900F9067
:1003B0000F900F90DF91CF911F910F910895F894B6
:1003C000812C912C5401750164010DEC1CEC2CE482
:1003D0003DE34DEC5CEC6CEC7DE38BED92E0FED00C
:1003E0000ED447D389E193E0A7D360E070E080E0CA
:1003F00090E031D21ADF1ED180917C00807E809304
:100400007C0080917C00826080937C009ED380E59C
:1004100094E09093F4028093F30288E08093F502D5
:100420007894239A80E019DF80E894D36EE071E03D
:1004300085E291E04EDF60ED72E08EE091E013DF47
:10044000609121017091220180E090E0EBD420E0E6
:1004500030E040E85AE39CD560931A0170931B0189
:1004600080931C0190931D01E1CF1F920F920FB654
:100470000F9211240BB60F92CF92DF92EF92FF9260
:100480002F933F934F935F936F937F938F939F939C
:10049000AF93BF93EF93FF9381E080932501609129
:1004A00023017091240186E291E03CDF60911A0102
:1004B00070911B0180911C0190911D01C09026013B
:1004C000D0902701E0902801F090290120E030E051
:1004D00040E05FE35DD5A7019601FBDD81E03FD3FE
:1004E00090931F0180931E01FF91EF91BF91AF91F7
:1004F0009F918F917F916F915F914F913F912F913C
:10050000FF90EF90DF90CF900F900BBE0F900FBE3B
:100510000F901F9018951F920F920FB60F921124F3
:100520000BB60F922F933F934F935F936F937F93ED
:100530008F939F93AF93BF93EF93FF93809120018D
:10054000833079F4209178008091790090E0982FA1
:100550008827820F911D9093220180932101109290
:10056000200180912001823039F483E07FD0809196
:1005700020018F5F8093200180912001813081F4E0
:10058000209178008091790090E0982F8827820F41
:10059000911D909324018093230182E08093200198
:1005A00080912001811107C082E060D080912001FC
:1005B0008F5F80932001FF91EF91BF91AF919F9149
:1005C0008F917F916F915F914F913F912F910F90FC
:1005D0000BBE0F900FBE0F901F9018958F929F9299
:1005E000AF92BF92CF92DF92EF92FF920F931F9341
:1005F000CF93DF93CDB7DEB7FC010487158726873D
:100600003787C48AD58AE68AF78A808A918AA28A3D
:10061000B38A4087518762877387DF91CF911F919B
:100620000F91FF90EF90DF90CF90BF90AF909F9091
:100630008F900895ECE7F0E0808180648083EAE7A2
:10064000F0E080818460808380818062808380810B
:1006500088608083ABE7B0E08C91887F8C93808149
:10066000806880838081806480830895ECE7F0E077
:100670009081987F8770892B808308951F920F92B5
:100680000FB60F9211240BB60F922F933F934F93F7
:100690005F938F939F93EF93FF93CF93DF931F927B
:1006A000CDB7DEB78091E00080FF4EC09091DE00B4
:1006B00090FF4AC01092ED008091EE0089838091F6
:1006C000EE008F7B8093EE0080912F0190912E01A0
:1006D0009817B9F18F702BE0829FC0011124FC01A3
:1006E000E052FE4F20812093F00020812093F20001
:1006F00021812093F30023812093FA002481209309
:10070000FA0025812093FA0026812093FA002781A0
:100710002093FA0020852093FA0021852093FA0087
:1007200022852093FA00FC01EE51FE4F80818F70EC
:1007300080648093EF0080912F018F5F80932F0161
:1007400078C010922D0175C081FF73C08091DE00CA
:1007500081FF6FC080E18093ED0090912B01292FE4
:1007600030E080912C01281B31092F77332720316D
:1007700031050CF052C0E92FEF708091EF002BE0B3
:10078000E29FF0011124E05DFE4F282F2F7082813F
:10079000807F822B82832091F2008091F000207E66
:1007A0008770822B80834091F30041835091FA003F
:1007B00053832091FA0024832091FA00258320910D
:1007C000FA0026832091FA0027832091FA002087DF
:1007D0002091FA0021872091FA0022879F5F909351
:1007E0002B01829586958770942F990F990F990FF9
:1007F000292F282B342F329536953770232B69F407
:10080000533059F498E088E10FB6F894A895809396
:1008100060000FBE90936000FFCF8091EE0089834F
:1008200089818091EE008F7D8093EE0080E8809337
:10083000EF000F90DF91CF91FF91EF919F918F91FA
:100840005F914F913F912F910F900BBE0F900FBE74
:100850000F901F901895CF93DF93E8EDF0E021E023
:1008600020832EEF2093E2002CE02093E30027E387
:100870002093E4001092E7001092E6001092E90045
:100880001092E8001092EC001092E500CDEED0E05E
:100890001882AEEEB0E01C9220E128831C921092E8
:1008A000F400282F2295220F207E2093F60023E0CB
:1008B000969587952A95E1F78093F7001092F000BE
:1008C000862F8295880F807E8093F20033E07695A4
:1008D00067953A95E1F76093F30080E88093EF0025
:1008E00083E08093DC008093DE0080EB8093DB006C
:1008F00082E0808310922A01DF91CF910895FC015C
:1009000020912C0180912B018217B9F1622F6F7019
:100910008BE0689FA0011124DA01A05DBE4F8C918D
:1009200082958695877011969C91392F330F330FDE
:10093000330F832B92959695977080839183DA017C
:10094000AE5CBE4F8C918F7082833396BA0140E0CB
:1009500050E090E0481759075CF4DA01A60FB71F82
:10096000A05DBE4F13963C9131934F5F5F4FF2CF26
:100970002F5F20932C0181E0089580E00895CF93AC
:10098000DF93FC018091DB008F778093DB00809107
:100990002D01811123C01092ED0080818295880F76
:1009A000807E8093F2008081918123E096958795E7
:1009B0002A95E1F78093F300DF011396CF010B96A0
:1009C0002D912093FA00A817B907D1F781E0809301
:1009D0002D01828180648093EF0040C020912E0120
:1009E000822F90E030912F01831B91098F779927F7
:1009F0004097B1F1A22FAF708BE0A89FD0011124D6
:100A0000ED01C052DE4F8081982F9295990F907E14
:100A100088818F71892B88838081982F96959695F0
:100A200096958981807E892B898391819295990FF2
:100A3000907E8F71892B89838281982F9F708A8104
:100A4000807F892B8A83AD51BE4F339688E0019019
:100A50000D928A95E1F72F5F20932E0181E001C06E
:100A600080E09091DB0090689093DB00DF91CF9164
:100A700008950F931F93CF93DF938EB1877C8EB928
:100A80008DB188638DB92C98249AA1E9B0E08C913E
:100A900088618C93E0E9F0E08081826080838081CE
:100AA0008E7F8083C0EBD0E08881886488838081DA
:100AB0008068808380818F7B808380818062808357
:100AC00080818061808388818062888388818F7E35
:100AD00088838C9181608C938C91897F8C93E6E9DB
:100AE000F0E08FEF90E091838083C8E9D0E0198235
:100AF00018820AE910E0D80111961C921E921092F9
:100B00009D0010929C001092B3006081718180E082
:100B100090E088D120E030E040E05FE339D251D16D
:100B20007983688388819981F80191838083DF913B
:100B3000CF911F910F910895909397008093960005
:100B4000089595B1892B85B9089584B1806E84B9D3
:100B500080EEF7CF95B18095982395B9089524E05C
:100B6000829FC0011124FC01E057FD4F608171811B
:100B70008281938128EE33E040E050E06CD2C901DD
:100B800008951F920F920FB60F9211240BB60F9279
:100B90008F939F93AF93BF93CF93DF93EF93FF9385
:100BA000C0EBD2E0E0E9F2E08991882359F080813E
:100BB0009181A281B381905EAF4FBF4F80839183BB
:100BC000A283B383349682E0E03BF80769F7FF9194
:100BD000EF91DF91CF91BF91AF919F918F910F9046
:100BE0000BBE0F900FBE0F901F9018959091C000F4
:100BF00095FFFCCF8093C60081E090E008951092AD
:100C0000C5001092C40086E08093C200E1ECF0E0E1
:100C100080818860808360E070E086EF95E03DC26F
:100C20005058BB27AA270ED075C166D130F06BD1C2
:100C300020F031F49F3F11F41EF45BC10EF4E095F7
:100C4000E7FB51C1E92F77D180F3BA176207730729
:100C50008407950718F071F49EF58FC10EF4E095A6
:100C60000B2EBA2FA02D0B01B90190010C01CA0166
:100C7000A0011124FF27591B99F0593F50F4503E11
:100C800068F11A16F040A22F232F342F4427585F03
:100C9000F3CF469537952795A795F0405395C9F71B
:100CA0007EF41F16BA0B620B730B840BBAF09150D3
:100CB000A1F0FF0FBB1F661F771F881FC2F70EC072
:100CC000BA0F621F731F841F48F487957795679545
:100CD000B795F7959E3F08F0B3CF9395880F08F02E
:100CE0009927EE0F979587950895D9D008F481E05C
:100CF00008950CD00FC107D140F0FED030F021F4A0
:100D00005F3F19F0F0C0511139C1F3C014D198F30D
:100D10009923C9F35523B1F3951B550BBB27AA277C
:100D200062177307840738F09F5F5F4F220F331FEE
:100D3000441FAA1FA9F333D00E2E3AF0E0E830D0BA
:100D400091505040E695001CCAF729D0FE2F27D0BD
:100D5000660F771F881FBB1F261737074807AB078B
:100D6000B0E809F0BB0B802DBF01FF2793585F4F00
:100D70002AF09E3F510568F0B6C000C15F3FECF31A
:100D8000983EDCF3869577956795B795F7959F5FC5
:100D9000C9F7880F911D9695879597F90895E1E019
:100DA000660F771F881FBB1F621773078407BA0778
:100DB00020F0621B730B840BBA0BEE1F88F7E095D3
:100DC000089504D06894B111D9C00895BCD088F0BA
:100DD0009F5790F0B92F9927B751A0F0D1F0660F27
:100DE000771F881F991F1AF0BA95C9F712C0B13042
:100DF00081F0C3D0B1E00895C0C0672F782F882755
:100E0000B85F39F0B93FCCF3869577956795B39580
:100E1000D9F73EF490958095709561957F4F8F4FEF
:100E20009F4F0895E89409C097FB3EF490958095F4
:100E3000709561957F4F8F4F9F4F9923A9F0F92FA0
:100E400096E9BB279395F695879577956795B7951E
:100E5000F111F8CFFAF4BB0F11F460FF1BC06F5F04
:100E60007F4F8F4F9F4F16C0882311F096E911C016
:100E7000772321F09EE8872F762F05C0662371F037
:100E800096E8862F70E060E02AF09A95660F771F4B
:100E9000881FDAF7880F9695879597F90895990F27
:100EA0000008550FAA0BE0E8FEEF16161706E80734
:100EB000F907C0F012161306E407F50798F0621B55
:100EC000730B840B950B39F40A2661F0232B242B2A
:100ED000252B21F408950A2609F4A140A6958FEF49
:100EE000811D811D089597F99F6780E870E060E09B
:100EF00008959FEF80EC089500240A9416161706B3
:100F000018060906089500240A94121613061406FA
:100F100005060895092E0394000C11F4882352F05D
:100F2000BB0F40F4BF2B11F460FF04C06F5F7F4F15
:100F30008F4F9F4F089557FD9058440F551F59F0FC
:100F40005F3F71F04795880F97FB991F61F09F3FB6
:100F500079F087950895121613061406551FF2CFDF
:100F60004695F1DF08C0161617061806991FF1CF2F
:100F700086957105610508940895E894BB27662756
:100F80007727CB0197F908958ADF08F48FEF08954A
:100F90000BD0C0CFB1DF28F0B6DF18F0952309F0F1
:100FA000A2CFA7CF1124EACFC6DFA0F3959FD1F33C
:100FB000950F50E0551F629FF001729FBB27F00D07
:100FC000B11D639FAA27F00DB11DAA1F649F66275C
:100FD000B00DA11D661F829F2227B00DA11D621FAB
:100FE000739FB00DA11D621F839FA00D611D221F65
:100FF000749F3327A00D611D231F849F600D211D49
:10100000822F762F6A2F11249F5750408AF0E1F0EB
:1010100088234AF0EE0FFF1FBB1F661F771F881F34
:1010200091505040A9F79E3F510570F05CCFA6CF7C
:101030005F3FECF3983EDCF3869577956795B7951F
:10104000F795E7959F5FC1F7FE2B880F911D969549
:10105000879597F90895A1E21A2EAA1BBB1BFD01E3
:101060000DC0AA1FBB1FEE1FFF1FA217B307E40787
:10107000F50720F0A21BB30BE40BF50B661F771FDF
:10108000881F991F1A9469F76095709580959095BF
:101090009B01AC01BD01CF0108950F931F93CF9326
:1010A000DF93009731F46115710519F480E090E049
:1010B00039C08B01EC016EE070E081E090E037D048
:1010C000FC01892B99F380E883830115110571F0E8
:1010D0001387028781E883838091FE029091FF024B
:1010E000892B21F4F093FF02E093FE022097C9F0D0
:1010F000D187C08783818260838380910003909130
:101100000103892B71F4F0930103E09300038091B4
:10111000020390910303892B21F4F0930303E093DE
:101120000203CF01DF91CF911F910F9108950F938B
:101130001F93CF93DF93869F8001879F100D969F0B
:10114000100D1124C8010DD0EC01009721F0A80169
:1011500060E070E027D1CE01DF91CF911F910F9118
:1011600008950F931F93CF93DF938230910510F46E
:1011700082E090E0E0910603F091070320E030E088
:10118000A0E0B0E0309719F14081518102811381D4
:1011900048175907C8F08417950769F4109731F07C
:1011A00012960C93129713961C9327C00093060374
:1011B0001093070322C02115310519F04217530778
:1011C00018F49A01BD01EF01DF01F801DBCF211511
:1011D0003105F9F0281B390B2430310580F48A8160
:1011E0009B816115710521F0FB019383828304C00B
:1011F0009093070380930603FE01329644C0FE01DC
:10120000E20FF31F81939193225031093983288390
:101210003AC02091040330910503232B41F420911F
:1012200002013091030130930503209304032091C0
:101230000001309101012115310541F42DB73EB770
:101240004091040150910501241B350BE0910403EA
:10125000F0910503E217F307A0F42E1B3F0B2817AC
:10126000390778F0AC014E5F5F4F2417350748F01F
:101270004E0F5F1F50930503409304038193919396
:1012800002C0E0E0F0E0CF01DF91CF911F910F911C
:101290000895CF93DF93009709F481C0FC01329742
:1012A00013821282A0910603B0910703109781F474
:1012B00020813181820F931F209104033091050317
:1012C0002817390751F5F0930503E093040367C02D
:1012D000ED0120E030E0CE17DF0740F44A815B816A
:1012E0009E0141155105F1F0EA01F5CFD383C28388
:1012F00040815181840F951FC817D90759F48881FF
:101300009981840F951F0296918380838A819B81A6
:10131000938382832115310529F4F0930703E09329
:1013200006033DC0E901FB83EA8349915991C40F4B
:10133000D51FEC17FD0761F480819181840F951F03
:101340000296E90199838883828193819B838A83B2
:10135000E0E0F0E012968D919C911397009719F0C0
:10136000FD01DC01F7CF8D919C9111979D012E5FBE
:101370003F4F820F931F20910403309105032817DC
:10138000390769F4309729F4109207031092060385
:1013900002C013821282B0930503A0930403DF916D
:1013A000CF910895DC0101C06D9341505040E0F7AA
:0613B0000895F894FFCF40
:0613B60000000803200006
:00000001FF
