:1000000051C000006DC000006BC0000069C000005E
:1000100067C0000065C0000049C5000061C0000065
:100020005FC000005DC000005BC0000059C0000060
:1000300059C4000055C0000053C0000051C000006A
:10004000E9C300000C94FB0863C6000049C000002F
:1000500047C0000037C2000017C2000041C00000C6
:100060003FC000003DC000003BC0000039C00000A0
:1000700037C0000035C0000033C0000031C00000B0
:100080005AC200003AC200002BC0000029C0000084
:1000900027C000006D066F067106730675067A06A6
:1000A0007E06820611241FBECFEFD0E1DEBFCDBF9A
:1000B00011E0A0E0B1E0ECE5F7E100E00BBF02C029
:1000C00007900D92AA31B107D9F723E0AAE1B1E078
:1000D00001C01D92A33AB207E1F7CBD20C94AC0B4E
:1000E0008FCF8F929F92AF92BF92CF92DF92EF927B
:1000F000FF920F93CF93DF93002341F010921B01E7
:1001000010921C0110921D0110921E010E943009D4
:100110006B017C0180911A0181111CC02AE037ED2E
:1001200043E25CE3C701B6010E94E80A9B01AC010F
:1001300060911B0170911C0180911D0190911E0125
:100140000E94310960931B0170931C0180931D0173
:1001500090931E012CE53FE842EC50E460911B01B6
:1001600070911C0180911D0190911E010E94E80A6E
:100170004B015C012CE132ED48E259E3C701B601C5
:100180000E94E80A9B01AC01C501B4010E9431093B
:1001900020E030E048E452E40E9431096B017C0128
:1001A00020E030E04EEB52E40E94E40A18164CF0D6
:1001B000C0920001D0920101E0920201F09203018D
:1001C0000FC080E090E0AEEBB2E48093000190932A
:1001D0000101A0930201B093030181E080931A0111
:1001E00020E030E040EA50E46091000170910101AC
:1001F00080910201909103010E94950987FF0FC031
:1002000080E090E0A0EAB0E48093000190930101C7
:10021000A0930201B093030181E080931A01C09181
:100220009600D091970020E030E048EC52E46091D5
:1002300000017091010180910201909103010E94DF
:1002400099096B017C01BE0180E090E00E94320AB6
:100250009B01AC01C701B6010E94E80A0E94010A95
:100260007093990060939800809198009091990004
:1002700090939B0080939A00DF91CF910F91FF9014
:10028000EF90DF90CF90BF90AF909F908F900895A8
:10029000249A0895882311F02C9A08952C98089593
:1002A0006D987598ED98EAE6F0E080818C60808327
:1002B000E59AED9A08959091120393959F71B091EC
:1002C000F002B917E1F3A92FB0E0A95CBC4F8C9301
:1002D000F894909312039091C10090629093C100A2
:1002E0001895FC018191882311F0E5DFFBCF08957B
:1002F000CF93DF93CDB7DEB727970FB6F894DEBF65
:100300000FBECDBF4AE0BE016F5F7F4F0E94710BF1
:10031000CE010196E6DF27960FB6F894DEBF0FBE3A
:10032000CDBFDF91CF9108959091F002809112039B
:100330009813FACF08959091360393959F71B091D9
:100340003403B917E1F3A92FB0E0AE50BD4F8C9341
:10035000F894909336039091C90090629093C900ED
:100360001895CF93C82FFB0184859585019739F0A7
:10037000CA3011F48DE09FDF8C2F9DDF06C0CA309C
:1003800011F48DE0D8DF8C2FD6DF80E090E0CF91A4
:1003900008959091F10280913303981751F09F5F77
:1003A0009F71A92FB0E0A153BD4F8C919093F102A2
:1003B000089580E00895FC01ECDF8132E8F3819339
:1003C0006A956A9561F0E5DF8823E9F38D3021F0C5
:1003D000813228F08193F5CFDCDF8823E9F31082A6
:1003E0000895CF93DF93CDB7DEB727970FB6F89474
:1003F000DEBF0FBECDBF67E0CE010196DCDFCE01D0
:1004000001960E94540B27960FB6F894DEBF0FBEDC
:10041000CDBFDF91CF9108959091F1028091330388
:10042000981759F09F5F9F71A92FB0E0A153BD4F5E
:100430008C919093F10290E008958FEF9FEF0895D3
:100440009091EF0280913503981759F09F5F9F714B
:10045000A92FB0E0AD5EBC4F8C919093EF0290E07D
:1004600008958FEF9FEF0895FC018485958501978E
:1004700029F0D2DF97FDFDCF1EDF04C0E1DF97FD3D
:10048000FDCF59DF90E008950F930FB7EF93FF93DF
:10049000E091F002F0911203E395EF71EF1305C0C4
:1004A000F091C100FF7DF093C100E093F002F0E015
:1004B000E95CFC4FE081E093C600FF91EF910FBF34
:1004C0000F9118950F930FB79F939091C600EF93DC
:1004D000FF93E0913303F091F102E395EF71FE1782
:1004E00031F0E0933303F0E0E153FD4F9083FF914F
:1004F000EF919F910FBF0F9118950F930FB7EF9347
:10050000FF93E0913403F0913603E395EF71EF131D
:1005100005C0F091C900FF7DF093C900E09334035A
:10052000F0E0EE50FD4FE081E093CE00FF91EF91BF
:100530000FBF0F9118950F930FB79F939091CE0017
:10054000EF93FF93E0913503F091EF02E395EF71A4
:10055000FE1731F0E0933503F0E0ED5EFC4F908341
:10056000FF91EF919F910FBF0F911895E1E8F0E097
:100570008081836080838081886080831092850081
:1005800010928400EFE6F0E08081826080838DE746
:1005900090E09093890080938800089584B58560E9
:1005A00084BD84B5886084BD16BCEEE6F0E0808131
:1005B000826080838EE487BD08950F931F93CF934D
:1005C000DF93EC018B01CB01E3D48823E1F0F80148
:1005D000808191818031F1E09F0741F0803392402A
:1005E00091F4F80186818E8781E006C088898111A7
:1005F00002C082E001C084E08F8780E29EE4909395
:10060000130180931201DF91CF911F910F910895F3
:100610000F931F93CF93DF93FC012081222321F1BD
:10062000EB018C018F85809395038E8580939603D3
:10063000688179818A819B81E9D670939803609360
:10064000970380919A0090919B0090939A038093D6
:1006500099032D8530E030939C0320939B0382E91E
:1006600093E0D6D4F8011082DF91CF911F910F91C2
:100670000895CF93DF9300D0CDB7DEB7F894812CE7
:10068000912C5401750164010DEC1CEC2CE43DE34C
:100690004DEC5CEC6CEC7DE38AE793E01ED232D546
:1006A00060E070E080E090E020D460DF77DFF8DD8C
:1006B00080E077D51092C4001092C50088E980933D
:1006C000C10084E091E09093A00380939F039093F6
:1006D0009E0380939D035BD5DBDD80E594E09093E2
:1006E00093038093920388E080939403789480E846
:1006F00053D508EE13E082E0B82EAA24A39490E22A
:10070000E92E9EE4F92E6FE171E088E391E080DF4D
:100710006FE673E08FE191E050DF20E030E04AE7E0
:1007200054E460911F01709120018091210190910A
:1007300022014ED76BD6CB01DBDD84E191E0D1DD28
:1007400080912D01282F209FC001219F900D112401
:10075000CFDD84E191E0C5DD609198007091990052
:10076000C0909600D090970080E090E07BD62B015F
:100770003C01B60180E090E075D69B01AC01C3015D
:10078000B201D7D520E030E04AE754E421D73ED685
:10079000CB01AEDD86E191E0A4DD80913303909141
:1007A000F102891B8F7109F4AECF1BDE9A83898316
:1007B000BBDD89819A810B9758F089819A81459791
:1007C00038F489819A818A5080932D01B0922E014C
:1007D00089819A81892B71F089819A810B9750F4D4
:1007E00089819A8180932D01A0922E01F0921301AC
:1007F000E092120189819A81892B09F084CF898145
:100800009A8180932D0110922E0110921301109263
:10081000120179CF1F920F920FB60F9211240BB6CF
:100820000F92CF92DF92EF92FF920F932F933F930D
:100830004F935F936F937F938F939F93AF93BF93E8
:10084000EF93FF938091120190911301009719F497
:1008500080E29EE401C001979093130180931201FE
:1008600080912E01813099F415DDC0901F01D09048
:100870002001E0902101F090220160912D0170E0B3
:1008800080E090E0EFD500E0A70196012ADC80919E
:100890002E0181110FC020911F0130912001409144
:1008A00021015091220100E060E070E0CB0119DCF1
:1008B00080E0F0DCFF91EF91BF91AF919F918F911C
:1008C0007F916F915F914F913F912F910F91FF9089
:1008D000EF90DF90CF900F900BBE0F900FBE0F9058
:1008E0001F9018951F920F920FB60F9211240BB6FE
:1008F0000F922F933F934F935F936F937F938F93B9
:100900009F93AF93BF93EF93FF9380913701843010
:10091000E1F465E371E0D7D121E043E050E062E328
:1009200071E085E391E04BD4809133018F71809326
:10093000330190E0982F882720913401822B9093E7
:100940003A01809339011092370180913701833049
:1009500019F484E080933701809137018230F9F4F3
:1009600065E371E0B0D121E043E050E062E371E083
:1009700085E391E024D4809133018F71809333011A
:1009800090E0982F882720913401822B90933C018E
:1009900080933B01809137018F5F80933701809175
:1009A00037018130F9F465E371E08DD121E043E056
:1009B00050E062E371E085E391E001D4809133017E
:1009C0008F718093330190E0982F88272091340114
:1009D000822B90933E0180933D01809137018F5F80
:1009E000809337018091370181111FC065E371E069
:1009F0006AD121E043E050E062E371E085E391E0F9
:100A0000DED3809133018F718093330190E0982F72
:100A1000882720913401822B9093400180933F01DD
:100A2000809137018F5F8093370160913F01709112
:100A300040018FE191E07DD060913D0170913E01D8
:100A400083E291E076D060913B0170913C0180E0BF
:100A500090E008D52AE939E94BE452E46AD420E071
:100A600030E040E85FE3FCD36093270170932801F6
:100A70008093290190932A016091390170913A0184
:100A80008BE291E09ED0FF91EF91BF91AF919F914A
:100A90008F917F916F915F914F913F912F910F9027
:100AA0000BBE0F900FBE0F901F9018951F920F92C4
:100AB0000FB60F9211248F939F93809130019091E4
:100AC0003101019690933101809330019F918F9174
:100AD0000F900FBE0F901F9018958F929F92AF921C
:100AE000BF92CF92DF92EF92FF920F931F93CF931B
:100AF000DF93CDB7DEB7FC010487158726873787DC
:100B0000C48AD58AE68AF78A808A918AA28AB38AB9
:100B10004087518762877387DF91CF911F910F9133
:100B2000FF90EF90DF90CF90BF90AF909F908F900D
:100B300008950F931F93CF93DF9300D000D0CDB7CC
:100B4000DEB78C0180E090E08DD420E030E040EA18
:100B500050E43ED520E030E040E859E339D527EDB8
:100B600033EA40E150E47CD323EC34E64AE25DE32F
:100B7000E0D320E030E040E450E4DBD369837A83C3
:100B80008B839C8369817A818B819C812EEA37E4F7
:100B900041EE5FE365D369837A838B839C8389818C
:100BA0009A81AB81BC81F80180839183A283B38356
:100BB0000F900F900F900F90DF91CF911F910F9199
:100BC00008950F931F93CF93DF9300D000D0CDB73C
:100BD000DEB78C0180E090E045D420E030E040EAD0
:100BE00050E4F6D420E030E040E859E3F1D46983E2
:100BF0007A838B839C8369817A818B819C812DECA4
:100C00003CEC4CE650E491D318168CF069817A8163
:100C10008B819C8120E030E040EA51E4D9D420E08F
:100C200030E040EB51E41CD3F1D3F80160836981DB
:100C30007A818B819C8126E636E646E950E475D3BD
:100C40001816E4F069817A818B819C812DEC3CEC53
:100C50004CE650E4B9D418168CF469817A818B8102
:100C60009C8120E030E04EE552E4B2D420E030E850
:100C70004BE153E4F5D2CAD3F801608369817A81EC
:100C80008B819C8126E636E646E950E49DD4181611
:100C90008CF469817A818B819C8120E030E048E48A
:100CA00053E496D420E030E042E554E4D9D2AED308
:100CB000F80160830F900F900F900F90DF91CF910C
:100CC0001F910F910895DB01482F50E048305105E6
:100CD000F0F4FA01E65BFF4FDEC486E007C086E071
:100CE0000AC086E00CC086E00EC087E08C931196A7
:100CF0001C92089587E08C9380E407C087E08C9372
:100D000080E803C087E08C9380EC11968C93089563
:100D10001F920F920FB60F9211240BB60F922F93C2
:100D20003F934F935F938F939F93EF93FF93CF9353
:100D3000DF931F92CDB7DEB78091E00080FF4EC0F9
:100D40009091DE0090FF4AC01092ED008091EE007D
:100D500089838091EE008F7B8093EE008091460125
:100D6000909145019817B9F18F702BE0829FC001D7
:100D70001124FC01E950FE4F20812093F0002081D6
:100D80002093F20021812093F30023812093FA0025
:100D900024812093FA0025812093FA002681209354
:100DA000FA0027812093FA0020852093FA002185FC
:100DB0002093FA0022852093FA00FC01E750FE4FB1
:100DC00080818F7080648093EF00809146018F5FF7
:100DD0008093460178C01092440175C081FF73C0B2
:100DE0008091DE0081FF6FC080E18093ED009091E3
:100DF0004201292F30E080914301281B31092F77D0
:100E00003327203131050CF052C0E92FEF7080916B
:100E1000EF002BE0E29FF0011124E95BFE4F282F49
:100E20002F708281807F822B82832091F2008091BB
:100E3000F000207E8770822B80834091F3004183F5
:100E40005091FA0053832091FA0024832091FA00F4
:100E500025832091FA0026832091FA002783209190
:100E6000FA0020872091FA0021872091FA0022873A
:100E70009F5F90934201829586958770942F990F7A
:100E8000990F990F292F282B342F329536953770CB
:100E9000232B69F4533059F498E088E10FB6F894A5
:100EA000A895809360000FBE90936000FFCF809163
:100EB000EE00898389818091EE008F7D8093EE0022
:100EC00080E88093EF000F90DF91CF91FF91EF9139
:100ED0009F918F915F914F913F912F910F900BBEFA
:100EE0000F900FBE0F901F901895CF93DF93E8EDF2
:100EF000F0E021E020831092E2002CE02093E30058
:100F000027E32093E4001092E7001092E60010928D
:100F1000E9001092E8001092EC001092E500CDEE8E
:100F2000D0E01882AEEEB0E01C9220E128831C9243
:100F30001092F400282F2295220F207E2093F60095
:100F400023E0969587952A95E1F78093F700109214
:100F5000F000862F8295880F807E8093F20033E028
:100F6000769567953A95E1F76093F30080E8809372
:100F7000EF0083E08093DC008093DE0080EB8093C1
:100F8000DB0082E0808310924101DF91CF910895D0
:100F9000FC0120914301809142018217B9F1622F37
:100FA0006F708BE0689FA0011124DA01A95BBE4F2E
:100FB0008C9182958695877011969C91392F330F6D
:100FC000330F330F832B929596959770808391837F
:100FD000DA01A75BBE4F8C918F7082833396BA0182
:100FE00040E050E090E0481759075CF4DA01A60FA2
:100FF000B71FA95BBE4F13963C9131934F5F5F4F74
:10100000F2CF2F5F2093430181E0089580E008959F
:10101000CF93DF93FC018091DB008F778093DB001F
:1010200080914401811123C01092ED00808182954E
:10103000880F807E8093F2008081918123E09695D5
:1010400087952A95E1F78093F300DF011396CF018E
:101050000B962D912093FA00A817B907D1F781E0DC
:1010600080934401828180648093EF0040C020918E
:101070004501822F90E030914601831B91098F77C3
:1010800099274097B1F1A22FAF708BE0A89FD001B4
:101090001124ED01C950DE4F8081982F9295990F50
:1010A000907E88818F71892B88838081982F969577
:1010B000969596958981807E892B898391819295D9
:1010C000990F907E8F71892B89838281982F9F70D1
:1010D0008A81807F892B8A83A650BE4F339688E011
:1010E00001900D928A95E1F72F5F2093450181E0F1
:1010F00001C080E09091DB0090689093DB00DF916D
:10110000CF9108958EB1877E8EB98DB188618DB9EA
:10111000A1E9B0E08C9188618C93E0E9F0E08081F6
:101120008260808380818E7F8083808180688083DD
:1011300080818F7B808380818062808380818061D9
:1011400080838C9181608C938C91897F8C93E6E96C
:10115000F0E089E991E0918380836081718180E092
:1011600090E080D120E030E040E05FE331D249D12F
:10117000E8E9F0E0718360838081918190939B0026
:1011800080939A00089595B1892B85B9089584B10B
:10119000806E84B980EEF7CF95B18095982395B98C
:1011A000089594B1976094B982FB992790F9837060
:1011B00080658CBD8CB5837F8CBD9DBD08952898BE
:1011C000FB01DC01460F571FE417F50789F0009774
:1011D00011F03C9101C03FEF3EBD0DB407FEFDCFC5
:1011E0006115710511F03EB5308331961196ECCF43
:1011F0002111289A08951F920F920FB60F92112471
:101200000BB60F928F939F93AF93BF93CF93DF93C0
:10121000EF93FF93C7ECD2E0E7EAF2E089918823ED
:1012200059F080819181A281B381905EAF4FBF4F11
:1012300080839183A283B383349682E0E73CF807EE
:1012400069F7FF91EF91DF91CF91BF91AF919F919E
:101250008F910F900BBE0F900FBE0F901F9018959F
:101260005058BB27AA270ED075C166D130F06BD17C
:1012700020F031F49F3F11F41EF45BC10EF4E095B1
:10128000E7FB51C1E92F77D180F3BA1762077307E3
:101290008407950718F071F49EF58FC10EF4E09560
:1012A0000B2EBA2FA02D0B01B90190010C01CA0120
:1012B000A0011124FF27591B99F0593F50F4503ECB
:1012C00068F11A16F040A22F232F342F4427585FBD
:1012D000F3CF469537952795A795F0405395C9F7D5
:1012E0007EF41F16BA0B620B730B840BBAF091508D
:1012F000A1F0FF0FBB1F661F771F881FC2F70EC02C
:10130000BA0F621F731F841F48F4879577956795FE
:10131000B795F7959E3F08F0B3CF9395880F08F0E7
:101320009927EE0F979587950895D9D008F481E015
:1013300008950CD00FC107D140F0FED030F021F459
:101340005F3F19F0F0C0511139C1F3C014D198F3C7
:101350009923C9F35523B1F3951B550BBB27AA2736
:1013600062177307840738F09F5F5F4F220F331FA8
:10137000441FAA1FA9F333D00E2E3AF0E0E830D074
:1013800091505040E695001CCAF729D0FE2F27D077
:10139000660F771F881FBB1F261737074807AB0745
:1013A000B0E809F0BB0B802DBF01FF2793585F4FBA
:1013B0002AF09E3F510568F0B6C000C15F3FECF3D4
:1013C000983EDCF3869577956795B795F7959F5F7F
:1013D000C9F7880F911D9695879597F90895E1E0D3
:1013E000660F771F881FBB1F621773078407BA0732
:1013F00020F0621B730B840BBA0BEE1F88F7E0958D
:10140000089504D06894B111D9C00895BCD088F073
:101410009F5790F0B92F9927B751A0F0D1F0660FE0
:10142000771F881F991F1AF0BA95C9F712C0B130FB
:1014300081F0C3D0B1E00895C0C0672F782F88270E
:10144000B85F39F0B93FCCF3869577956795B3953A
:10145000D9F73EF490958095709561957F4F8F4FA9
:101460009F4F0895E89409C097FB3EF490958095AE
:10147000709561957F4F8F4F9F4F9923A9F0F92F5A
:1014800096E9BB279395F695879577956795B795D8
:10149000F111F8CFFAF4BB0F11F460FF1BC06F5FBE
:1014A0007F4F8F4F9F4F16C0882311F096E911C0D0
:1014B000772321F09EE8872F762F05C0662371F0F1
:1014C00096E8862F70E060E02AF09A95660F771F05
:1014D000881FDAF7880F9695879597F90895990FE1
:1014E0000008550FAA0BE0E8FEEF16161706E807EE
:1014F000F907C0F012161306E407F50798F0621B0F
:10150000730B840B950B39F40A2661F0232B242BE3
:10151000252B21F408950A2609F4A140A6958FEF02
:10152000811D811D089597F99F6780E870E060E054
:1015300008959FEF80EC089500240A94161617066C
:1015400018060906089500240A94121613061406B4
:1015500005060895092E0394000C11F4882352F017
:10156000BB0F40F4BF2B11F460FF04C06F5F7F4FCF
:101570008F4F9F4F089557FD9058440F551F59F0B6
:101580005F3F71F04795880F97FB991F61F09F3F70
:1015900079F087950895121613061406551FF2CF99
:1015A0004695F1DF08C0161617061806991FF1CFE9
:1015B00086957105610508940895E894BB27662710
:1015C0007727CB0197F908958ADF08F48FEF089504
:1015D0000BD0C0CFB1DF28F0B6DF18F0952309F0AB
:1015E000A2CFA7CF1124EACFC6DFA0F3959FD1F3F6
:1015F000950F50E0551F629FF001729FBB27F00DC1
:10160000B11D639FAA27F00DB11DAA1F649F662715
:10161000B00DA11D661F829F2227B00DA11D621F64
:10162000739FB00DA11D621F839FA00D611D221F1E
:10163000749F3327A00D611D231F849F600D211D02
:10164000822F762F6A2F11249F5750408AF0E1F0A5
:1016500088234AF0EE0FFF1FBB1F661F771F881FEE
:1016600091505040A9F79E3F510570F05CCFA6CF36
:101670005F3FECF3983EDCF3869577956795B795D9
:10168000F795E7959F5FC1F7FE2B880F911D969503
:10169000879597F90895EE0FFF1F0024001C0BBEDD
:1016A0000790F691E02D0994FC0188279927E8948A
:1016B00021912032E9F3293010F02E30C8F32B327B
:1016C00039F02D3231F4689403C015D0820F911D8A
:1016D000219120532A30C8F31EF4909581959F4F95
:1016E0000895BB274A3031F4992322F4BDE2909546
:1016F00081959F4F09C07AE0979F902D879F802DFD
:10170000910D11240895BB27FB015527AA27880FA7
:10171000991FAA1FA41710F0A41B83955051B9F765
:10172000A05DAA3308F0A95DA193009779F7B111E4
:10173000B1931192CB0100C0DC01FC01672F7191C4
:101740007723E1F7329704C07C916D9370836291A7
:0C175000AE17BF07C8F30895F894FFCF50
:10175C00000048420000000300000000B101340208
:0A176C000000204E2C000D0A0000C2
:00000001FF
